:020000040001F9
:10B00000502A0020D5B00100EFB00100F1B00100DE
:10B010000000000000000000000000000000000030
:10B02000000000000000000000000000F3B001007C
:10B030000000000000000000F5B00100F7B00100C2
:10B040007DB60100F9B0010035B80100F9B001008A
:10B05000F9B0010000000000C1B4010061B40100BA
:10B06000F9B00100F9B00100F9B00100F9B0010038
:10B07000F9B00100F9B00100F9B00100F9B0010028
:10B08000F9B00100D1B60100F9B00100F9B001003A
:10B0900061B70100F9B0010069B70100F9B0010022
:10B0A000F9B00100F9B0010000000000000000004C
:10B0B0000000000000000000000000000000000090
:10B0C0000348854600F0AAF90048004709CE010070
:10B0D000502A00200321094802680A4302600848F8
:10B0E00002680A4302600748804707480047FEE7B6
:10B0F000FEE7FEE7FEE7FEE7FEE70000240500406E
:10B100005405004095B70100C1B0010000487047E8
:10B1100030E0010003460B439B0703D009E008C958
:10B12000121F08C0042AFAD203E00B780370401CF7
:10B13000491C521EF9D27047D2B201E00270401C85
:10B14000491EFBD270470022F6E710B513460A46A7
:10B1500004461946FFF7F0FF204610BD421C017857
:10B16000401C0029FBD1801A704703460A78027000
:10B17000401C491C002AF9D118467047F0B51FB48D
:10B1800088B00B990998002448400999C00F4900DC
:10B1900049080991C0070B990090490049080B9193
:10B1A00009990898A64608431CD00B990A980843A9
:10B1B00018D0099801244000420D4800410D09981B
:10B1C00024050003000B204309900B980003000B9B
:10B1D00020430B9050181C4940180022019014463F
:10B1E000104605E0002001460DB0F0BD032801DA4D
:10B1F000034600E003239C46C11A0AAE0AE05F0042
:10B2000008ADED5B4F00F75B7D430027AA187C413A
:10B21000491C5B1E6145F2DD410004AB5A5221041A
:10B22000120C0A43240C401C0828DFDB0198029012
:10B230000099704601910090059B049A0799069821
:10B2400000F09AF8D0E700000DFCFFFF70B54B004E
:10B250005B0803430BD04B005C0D00263346654270
:10B26000B341D417AD1AA34102DB0020014670BDE3
:10B2700012053018514170BD0EB5C217C10F5040B4
:10B28000CA0740180021054B0293019200910A461B
:10B290000B4600F071F803B000BD0000330400005D
:10B2A0004A0009030123090B1B051943094B10B57B
:10B2B000520D9A4201DA002010BD064B34339A42F7
:10B2C00003DC9A1A00F03AF810BD0349511888407F
:10B2D00010BD0000FF030000CDFBFFFFF0B51FB461
:10B2E0000646002082B005464024019100901BE0F4
:10B2F000019922460F46304600F020F8049A059B3B
:10B30000801A994110D310461946224600F098F849
:10B31000361A8F410197224601200021009F00F03C
:10B320008FF838184D4100902046641E0028DFDC5D
:10B33000019B00982946324607B0F0BD10B5202A7F
:10B3400004DB0846203AD040002110BD0B46D34014
:10B35000D0402024A21A91400843194610BD10B5D0
:10B36000002B08DA0024401C614192185B411A430B
:10B3700001D14008400010BDF0B51FB482B00546B1
:10B380000C0003D0084600F009FB02E000F006FBC9
:10B390002030024600902146284600F051F8049BD8
:10B3A000059A04460F4618431143084314D0184623
:10B3B00010431BD0009840210A1A18460599FFF740
:10B3C000BDFF05460E46009A0599049800F038F82E
:10B3D000084305D0012004E02046394607B0F0BDFF
:10B3E0000020C11705430E432C43374300990E98A4
:10B3F0006305401A7905E40A00220C43FD0A0A306D
:10B4000002D500200146E9E70105101969410C9CAD
:10B410000D9D00196941FFF7A2FFDFE7064C0125EA
:10B42000064E05E0E36807CC2B430C3C98471034EC
:10B43000B442F7D3FFF748FEDCE00100FCE0010076
:10B4400010B5202A04DB0146203A9140002010BDAF
:10B45000914020239C1A0346E3401943904010BDBD
:10B46000FEB5134C0026E0680125124F002810D0CD
:10B4700000F0B8FD00280BD00120B86068460670C7
:10B48000E0680190217C68460181A57421688847A5
:10B49000FEBD094806600120B8600848066069469C
:10B4A0000D7080688880A57468462168EFE7000009
:10B4B000781B0020007300400071004000750040C0
:10B4C000F0B50024FF268BB00136012527460694EF
:10B4D000304601F003FF002807D054484068284256
:10B4E00003D0304601F0F2FE2C43361D6D007F1C68
:10B4F000B6B2042FECD3FF257D35284601F0EEFED1
:10B50000002809D0284601F0E1FE6807044306AA96
:10B510000121002001F0C6FE454D200714D001276F
:10B52000002627420CD04348B20011180869096967
:10B53000C004C00E8903AA58890F002A00D0904782
:10B540007F00761C042EECD3002C6DDA00200890CE
:10B55000401E63E0281940300778B906890E009133
:10B5600000214156491C49D009A9009801F084FDE9
:10B57000002843D0B8090190009801F05BF98000E1
:10B580002F580198002F02D0032802D00DE0032885
:10B5900034D1009808ABC20841079446985C490F23
:10B5A00001228A40104362469854009805210907F9
:10B5B00080004018072109024018006806A980038E
:10B5C000800F0290009801F057FD0028029802D0E9
:10B5D000022802D012E0032810D10198032808D1D4
:10B5E000029802281ED00221009801F049FE761C24
:10B5F000F6B2002F02D001990098B847641C042CC1
:10B60000A8D3002E10D06A460121002001F04AFE86
:10B6100006990098884207D006900898002634467C
:10B62000099097E70321DFE70BB0F0BD006300400E
:10B63000141B0020006500408307FF22DB0E9A40A8
:10B640008907090E994000280BDA0007000F083817
:10B65000830808489B001818C36993430B43C361D0
:10B660007047830804489B001B18186890430843E0
:10B670001860704700ED00E000E400E0F8B5FF203E
:10B68000013001F001FD002401250E4E0E4F00286F
:10B6900007D00E4804600120B0607D70002001F0EA
:10B6A000D1F8FF20053001F0EFFC002808D0074852
:10B6B000001D04600220B060BD70012001F0C2F8DE
:10B6C000F8BD000000030040001B00200001004006
:10B6D00010B506490020086048608860C8600349CA
:10B6E00040390860486002F049FA10BD401101403D
:10B6F00010B503480078002801D100F0A5F810BD6E
:10B70000D421002070B50E46182148431349144631
:10B710004518E86A1835002804D001280FD00228FF
:10B7200005D113E0284600F0C5F8A04201D200245C
:10B7300011E022463146284600F0F7F80BE0284693
:10B7400000F0B8F8A042F4D20446F2E731462846A9
:10B7500000F0BBF80446204670BD0000D421002054
:10B7600010B502F0A1F910BD10B5084840680028D6
:10B7700008D08047002804D0FF21054AAC3100F0F2
:10B78000B3FD10BD01F05EF910BD0000E01800200F
:10B7900084E0010010B501F09BF9002805D01F4995
:10B7A0001D484860C8131E4988611E48018CC9B2F3
:10B7B00001290BD1828C120708D1028D1206120FBB
:10B7C000042A03D1828D1206120F0AD0012921D139
:10B7D000818C09071ED1018D0906090F0A2904D0A1
:10B7E00007E0114A01219160F5E7828D1206120FE0
:10B7F00005D00D290ED1808D0006000F0AD10B480F
:10B800000168012904D00A49016001680129FCD1BD
:10B81000C021416110BD0000DFFF07C000050040EE
:10B82000006C0040C00F00F00006004000EC064035
:10B830007593000010B50249024802F07AFA10BD73
:10B840005C1B00200020004010B5124C022020613B
:10B85000606111A0A0611348E061012040022062F4
:10B860000020A06260620CA1A1642146E062103950
:10B87000E16410212165A0656065E0650AA1E01D15
:10B88000FFF773FC09A12046FFF76FFC2020A07191
:10B8900010BD0000D42100205465726D696E616C8A
:10B8A00000000000C41F0020525454005345474775
:10B8B000455200000269C1688A4203D88068401A74
:10B8C000801800E0501A401E7047F7B5064682B057
:10B8D00000200090F46817463069A04201D9051B8A
:10B8E00002E0B168201A0D1AB0686D1E001BA84254
:10B8F00000D80546BD4200D33D4670682A4600196F
:10B900000399FFF707FC00987F1B401900900398EC
:10B91000641940190390B068A04200D10024F4607B
:10B92000002FD9D1009805B0F0BDF7B5C66817460D
:10B9300004468068851B6068BD4206D9801901995C
:10B94000FFF7E8FBF019E060FEBD2A468019019977
:10B95000FFF7E0FB01987E1B411932466068FFF754
:10B96000D9FBE660FEBD00000FB41CB50246002006
:10B9700007AC00290BD0491E01910092064B6A4684
:10B980002146069800F04CF8009A002111701CBC6A
:10B9900008BC04B01847000095BE01002021020C2D
:10B9A00001D010211046020A01D0104608390209C0
:10B9B00001D01046091F820801D01046891E420896
:10B9C00001D0881E7047081A704730B47446641E50
:10B9D0002578641CAB4200D21D46635D5B00E31812
:10B9E00030BC184702E008C8121F08C1002AFAD16B
:10B9F00070477047002001E001C1121F002AFBD1EF
:10BA000070470000202804DA0121814003480142E8
:10BA100001D001207047002070470000FC06FFBCE9
:10BA2000FFB591B00F460546002606E025280AD04E
:10BA3000149A139990476D1C761C28780028F5D12C
:10BA4000304615B0F0BD002400940121F34A029461
:10BA500000E004436D1C2B780846203B98401042C0
:10BA6000F7D128782A280ED0022128780246303AC9
:10BA7000092A15D8009A0A235A43303A80180C43F1
:10BA80006D1C0090F1E701CF0090002805DA01203D
:10BA900040030443009840420090022004436D1C80
:10BAA00028782E2815D10420044368786D1C2A2894
:10BAB0000AD101CF6D1C02900BE002990A2251437A
:10BAC000303940186D1C0290287801463039092918
:10BAD000F3D928786C2810D006DC4C281AD06828B6
:10BAE0000ED06A2817D104E0742813D07A2812D116
:10BAF00010E00120400504430CE00121090501E0AC
:10BB0000032109050C436978814203D10120000516
:10BB100024186D1C6D1C287803906E281ED00CDC38
:10BB2000632831D004DC00288AD0582811D1B2E033
:10BB300064287BD069280CD178E073282DD004DCF0
:10BB40006F2870D0702804D1A7E075286CD07828B1
:10BB50006BD0149A13999047761C62E06002400FF4
:10BB6000022807D003280AD0042838680AD00660C3
:10BB70003F1D56E03868F11706604160F8E7386805
:10BB80000680F5E70670F3E7387869460874002008
:10BB9000487404A80390012003E038680390002053
:10BBA000C0433F1D61070FD5002101E00199491CE9
:10BBB000029A0191914213DA8142F7DB019A0399CB
:10BBC000895C0029F2D10BE0002101E00199491CB8
:10BBD00001918142FADB019A0399895C0029F5D130
:10BBE00001990098139A401A00902146149B00F086
:10BBF0003BF901998019461807E0039803990078EA
:10BC0000491C0391149A139990470198401E019082
:10BC1000401CF2D12146149B139A009800F014F9AD
:10BC200086196D1C09E741E033E034E00A20002169
:10BC3000049005916002410F022905D001CFC2177F
:10BC40009446032905D007E0FF1DFF08FF0003CF3E
:10BC500006E000B2C2179446042902D140B2C117CF
:10BC60008C4600226146944506DA0A46002140428D
:10BC700091418C462D2102E0210504D52B216A46F5
:10BC80001176012103E0E10701D02021F7E70191BE
:10BC900054E00A200BE0102009E01020049000215D
:10BCA0000420044308200591029003E008200021AD
:10BCB000059104906002410F022905D001CF0022B6
:10BCC0009446032906D006E0FF1DFF08FF0003CFBE
:10BCD0008C4603E080B2042900D1C0B2002101915A
:10BCE00021072BD50399702906D0049A1021059BB2
:10BCF0004A401A4305D00EE040216A4611760121E0
:10BD000008E06146014306D030216A461176039966
:10BD1000517602210191049A0821059B4A401A4359
:10BD20000CD16146014301D1610707D530216A4634
:10BD30001176012101910299491E02910399582916
:10BD400004D037A103910FA90F910DE039A1F9E7B4
:10BD50006146059B049AFFF7C1FA039B8C469B5CE6
:10BD60000F9A521E0F92137061460143F0D10F9843
:10BD700007A9081A20300390600704D501200004A9
:10BD80008443029801E0012002900399884201DD7A
:10BD9000401A00E00020411802900198091800980C
:10BDA000401A0090E00306D42146149B139A009891
:10BDB00000F05AF886190020049008E006A9085CF3
:10BDC000149A139990470498401C761C049001998A
:10BDD0008842F3DBE0030CD52146149B139A0098AC
:10BDE00000F042F8861904E0149A30201399904725
:10BDF000761C0299481E02900029F5DC08E00F9895
:10BE00000F990078491C0F91149A13999047761C4A
:10BE10000399481E03900029F1DCFBE60928010084
:10BE200030313233343536373839616263646566B0
:10BE30000000000030313233343536373839414272
:10BE40004344454600000000F8B5044600251E4660
:10BE50001746880404D405E039462020B0476D1CFD
:10BE6000641EF9D52846F8BDFFB50446002581B00B
:10BE70001E46C80301D5302700E02027880404D5DA
:10BE800005E038460399B0476D1C641EF9D5284675
:10BE900005B0F0BD4A68002A06D00A68531C0B6042
:10BEA00010704868401E486070470000F8B5007880
:10BEB000002806D0012803D11DA1032001F0F4FBC6
:10BEC000F8BD26A1032001F0EFFB2E4C0020205EE0
:10BED000FFF7D2F92C4D2D4E2A463346FFF74EF987
:10BEE0002B4F00223B46FFF749F90722D243FFF7C9
:10BEF000ADF9FFF7D5F9024626A1032001F0FAFBC0
:10BF00000220205EFFF7B8F92A463346FFF736F9DC
:10BF100000223B46FFF732F90722D243FFF796F99A
:10BF2000FFF7BEF9024625A1032001F0E3FBF8BDAF
:10BF30003A494E464F3A4E52465F4452565F41444C
:10BF4000435F4556545F53414D504C4520747269D0
:10BF50006767657265640D0A000000003A494E4645
:10BF60004F3A4E52465F4452565F4144435F4556F6
:10BF7000545F444F4E45207472696767657265640B
:10BF80000D0A000078180020CDCCCCCCCCCC0C40D5
:10BF900000408F403A494E464F3A43757272656E83
:10BFA000742053432073616D706C652076616C75ED
:10BFB0006520313A2025640D0A0000003A494E46BA
:10BFC0004F3A43757272656E74204241542073611A
:10BFD0006D706C652076616C756520323A20256441
:10BFE0000D0A000070B514490020124B0860134977
:10BFF00008608C681248427CC5685600521CAC53DD
:10C00000D2B24274047CA24212D2846800226468D4
:10C01000002C0AD00122846020684860012008605A
:10C02000002A00D01860002070BD44688460F3E7E7
:10C03000012070BD0070004000710040007500409C
:10C04000781B0020F7B584B00025178806461580B8
:10C0500000781446002806D03B463046059900F08B
:10C06000B1FF050016D1304620300290407B0028F9
:10C0700006D03A462146059800F01CFB050009D180
:10C08000B078002823D0059886462088001DB84245
:10C0900002D90C2007B0F0BD684679DF0028F9D13D
:10C0A000218803207246505420881921401C80B2F8
:10C0B0002080115420887146401C80B22080411895
:10C0C0006846008801F0C9FE218840182080F07879
:10C0D000002817D0218803230A46F356C91C059867
:10C0E000B942D6D80221815421880122491C89B243
:10C0F000218042542188491C89B2218043542088E0
:10C10000401C20807068002817D021880023C35667
:10C110000A46C91C0598B942BBD80221815421881E
:10C120000A22491C89B2218042542188491C89B2C3
:10C13000218043542088401C2080308A00280AD067
:10C14000009430460197072203211030059B01F02F
:10C150009FFE05009ED1308B00280AD00094304607
:10C160000197152214211830059B01F091FE05005E
:10C1700090D1306A002806D03B462246059900F04F
:10C18000C9FB050086D1706A002806D03B462246CE
:10C19000059900F0E3FE0500DCD10298007B002841
:10C1A00007D03B4622463046059901F099FB050031
:10C1B000D0D1308900280AD0009430460197062259
:10C1C00002210830059B01F063FE0500C2D128461C
:10C1D00060E7000010B50EA1032001F065FA164CCF
:10C1E0006068401C606074DF002804D0FF2113A247
:10C1F0003D3100F079F86068142804D000F0EEFBBF
:10C2000000F024F810BD00F03BFD00206060F7E76F
:10C210003A494E464F3A72756E6E696E673A2061C2
:10C2200064765F74696D656F75745F68616E646C68
:10C2300065720D0A00000000701800202E2E5C2E82
:10C240002E5C2E2E5C6D61696E2E630010B507A109
:10C25000032001F029FA0E4873DF002804D0FF21E3
:10C260000CA2273100F040F810BD00003A494E46BC
:10C270004F3A72756E6E696E673A206164766572C8
:10C28000746973696E675F73746172740D0A00007C
:10C29000701A00202E2E5C2E2E5C2E2E5C6D616995
:10C2A0006E2E630070B50D460646144608A10120A7
:10C2B00001F0FAF901F040F901F044F90028FBD14E
:10C2C00000BE22462946304600F04EF870BD000000
:10C2D0004150505F4552524F523A4552524F523A96
:10C2E000466174616C0D0A003EB5044668460180E3
:10C2F000154601920A46029409A1032001F0FAF9B9
:10C300002A460CA1032001F0F5F922460FA10320D3
:10C3100001F0F0F96A4600211248FFF7C3FF3EBD65
:10C320003A494E464F3A6C696E655F6E756D3A20BC
:10C3300025750A003A494E464F3A66696C655F6E4C
:10C34000616D653A2025730A000000003A494E46A7
:10C350004F3A6572725F636F64653A203078255892
:10C360000A0000000140000018B501246B461C7053
:10C370001B78144B186059609A601349401807D015
:10C3800001280FD1DA60D86800889861D86807E082
:10C390001A6118698068586118690088986118697D
:10C3A0004068D861186858689868D86818695869EA
:10C3B0009869D86972B6684600780028FBD162B6E1
:10C3C00018BD00008C1B0020FFBFFFFF094B5B68FE
:10C3D000002B07D0002A07D0002805D00068037C76
:10C3E000002B03D00820704707207047417442613A
:10C3F00000207047BC180020FFB5074690070025B5
:10C4000081B01E461446002825D1002C23D001F00F
:10C41000CFF93046114EF06030461030057045704F
:10C420000299817044607560357001240C48757004
:10C430002405046003211420FFF7FEF80948046076
:10C44000094CA76003211120FFF7F6F86068B0607F
:10C45000002005B0F0BD0720FBE70000AC1800206D
:10C4600080E200E000E100E000150140FEB51F4B56
:10C470005B68002B30D000282ED0052901D2072080
:10C48000FEBD4369002B27D0437C012B26D000271B
:10C49000029104460025694616460D70684600F074
:10C4A00029F801A801F0DEFC002819D00121017053
:10C4B0000F49446049688160029907614661C16023
:10C4C00068460A49007948706846007800F030F8FC
:10C4D00001F02CFB2846FEBD0820FEBD0F46D7E725
:10C4E00068460425007800F023F8F3E7BC18002024
:10C4F0000015014030B5EFF3108172B6094A546857
:10C500000123002C04D00370002900D162B630BD95
:10C510005360054B1D68054C254015601C600022CA
:10C520000270F1E7D018002080E100E0FC06FFBCBB
:10C5300008494A68002A0CD000280AD1EFF310807D
:10C5400072B60A68044B1A6000224A60002800D1C3
:10C5500062B67047D018002000E100E010B50FA1CE
:10C56000032001F0A1F8184C0F2100224904606853
:10C57000FFF77CFF002804D0FF21144A6C31FFF73D
:10C58000B3FE00221249A068FFF770FF002804D014
:10C59000FF210E4A6F31FFF7A7FE10BD3A494E4604
:10C5A0004F3A72756E6E696E673A206170706C6991
:10C5B000636174696F6E5F74696D6572735F7374C4
:10C5C0006172740D0A00000070DF010024CF0100C9
:10C5D000CD0C000010B50BA1032001F065F802217D
:10C5E000154800F071FD002804D0FF2113A24C3142
:10C5F000FFF77AFE00F0CAFD0F4808380168491CB1
:10C60000016010BD3A494E464F3A72756E6E696EC2
:10C61000673A20626174746572795F6C6576656CE7
:10C620005F6D6561735F74696D656F75745F686177
:10C630006E646C65720D0A00781800202E2E5C2E38
:10C640002E5C2E2E5C6D61696E2E6300F0B50C467B
:10C6500093B01F216A461180072600279180002889
:10C6600009D0C17849070DD502A9FFF7EBFC0028D6
:10C6700009D102AD01E000251780002C0ED0E07832
:10C68000002802D0304613B0F0BD01AA0AA9204606
:10C69000FFF7D8FC0028F6D10AAA02E0684600227B
:10C6A000878068468088C3B268460088C1B2284641
:10C6B00072DFE8E77CB5054608880C4609309042F1
:10C6C00001D90C207CBD684671DF0028FAD1218891
:10C6D0000820685420881B21401C80B220802954E7
:10C6E000208800A9401C80B2208040190622013118
:10C6F000FEF710FD20886946801D80B220800978F1
:10C70000002900D0012129542088401C20800020CD
:10C710007CBD000000B587B015A1032000F0C4FF68
:10C720001B480023C068059048221A4905A801F05B
:10C7300089F9002804D0FF21174A8131FFF7D4FD81
:10C7400000216A46084601F065F9002804D0FF215F
:10C75000114A8731FFF7C8FD684601F009F9002842
:10C7600004D0FF210C4A8E31FFF7BEFD07B000BD9B
:10C770003A494E464F3A72756E6E696E673A20625C
:10C780006C655F737461636B5F696E69740D0A0039
:10C7900070DF0100B019002024CF0100002901DA68
:10C7A00000207047026851180160012070470000A6
:10C7B000F8B50D46461C00206946087001246846FD
:10C7C000FFF798FE134A1068286011685068936854
:10C7D000081A1D1A701C6D1CA84212D9002D0ED00B
:10C7E0000D480E4C0088246880051940800DA40275
:10C7F000890020438918C8601068401C106000241C
:10C8000001E08819106068460078FFF791FE204625
:10C81000F8BD0000AC1B002088DF0100DC18002000
:10C82000034803C8814201D10120704700207047AE
:10C83000AC1B002002490918202008567047000050
:10C84000141B002070B5084C050009D01034216875
:10C85000002907D008682060496828468847F6E71D
:10C860000834F4E770BD0000001B0020F8B5234831
:10C87000416800293ED00E6821494C68876880785D
:10C88000E11B0D022D0AED1C002814D101201D4AC8
:10C89000000450601B4A403A50601B494000086049
:10C8A0001A4908601A49012008602F2000F0F4FBA3
:10C8B000124901208870B54200D23546E8190002BD
:10C8C0000F4B000A403318600D4A5168001B091BCA
:10C8D0000902090A0002000AC91C814209D95068EC
:10C8E00018602F2000F0D8FB012007494004803950
:10C8F0000860F8BD00F05CFFF8BD0000AC18002037
:10C90000001501404013014080E200E000E100E03A
:10C9100000100140F8B50646108814468446801D74
:10C920000D46984201D90C20F8BD32880720062A0E
:10C93000FAD31927FF01184BBA4201D99A42F3D111
:10C9400071880629F0D3B94201D99942ECD19A42B3
:10C9500003D0994201D08A42E6D805216046295485
:10C9600020881221401C80B2208029542088401C3D
:10C9700080B220804119308801F06FFA2188401878
:10C9800080B220804119708801F067FA2188401830
:10C9900020800020F8BD0000FFFF000010B50E4908
:10C9A00000230A784C78A24212D0521CD2B20A70EC
:10C9B000022A00D10B700A78074B920018339A585C
:10C9C0000260886810180002000A8860012010BD0B
:10C9D0000360002010BD0000AC1800203EB54C21C3
:10C9E0006846018014480290172168468180062518
:10C9F0003C211248FEF7A7FB104800240470C570C4
:10CA0000694641622146FFF721FE002803D00C4A07
:10CA1000C921FFF769FC094818211838FEF793FB74
:10CA2000064803211838017044607D210472C90151
:10CA3000018244823EBD000094180020881A002024
:10CA400024CF0100F8B5204C207800283AD0E068C7
:10CA5000002600280ED000256078002832D16846D4
:10CA600052DF052808D0002808D0184AA521FFF772
:10CA70003BFC0BE00125EFE7012607E0009800F002
:10CA8000C9FB2169002901D000988847002D15D1E4
:10CA90006078002816D1608869460880A06861DF48
:10CAA000052806D0002806D0084ACA21FFF71CFC3A
:10CAB00004E0012502E0E168A0688847002ECBD0A1
:10CAC000002DE3D0F8BD0000E018002084E0010054
:10CAD0001048018CC9B2012917D1818C090714D1E2
:10CAE000018D09060A0F03D1828D1206120F0ED096
:10CAF000090F012903D1828D1206120F07D00329D5
:10CB000003D1808D0006000F01D000207047012066
:10CB100070470000C00F00F0F0B5284C21461039D6
:10CB200048688B68227886469C46CF78667836E0DF
:10CB3000182353436168521CC918A378D2B2934298
:10CB400000D100220B78022B02D0032B27D123E047
:10CB500003464D68194603E0A94204D00B46C96953
:10CB600000291CD0F8E7002919D08B4208D1C069F0
:10CB7000002805D1124F0125BD600025AC460127D4
:10CB80000D68C969D961002909D00B685B190B6070
:10CB900005E00174C06900E000210028F9D1964247
:10CBA000C6D10649624610398A604860CF70704528
:10CBB00001D00120F0BD0020F0BD0000BC18002015
:10CBC00000100140F8B52C4E044670680025009016
:10CBD00041E0002C02D02046E46920E026481823DA
:10CBE0001030017842684B43491CC9B2D218017019
:10CBF0008378994200D105701178506801292CD1B1
:10CC0000017C002929D191684160D1688160116956
:10CC1000C16051698161F178002900D045604368A5
:10CC2000B268164F991A0902090AB94202D28268FB
:10CC3000891806E0D11A09028268090A8A4202D9D3
:10CC4000511A016000E005604560012185600174B2
:10CC5000C56100F073FF002CBBD10748103001788C
:10CC600040788142BAD171680098814201D0012098
:10CC7000F8BD0020F8BD0000AC180020FFFF7F00C9
:10CC800070B58AB049A1032000F00EFD4F486946F7
:10CC9000088206254E4900206C460A5C2254401C3E
:10CCA0000628FADB4A4906200C390A680923191AB2
:10CCB000CE001146F1402154401C0A28F7DB4449BC
:10CCC0000320091F0A78A2728978E172227841A1B3
:10CCD00000F010FD684642783EA1032000F00AFDF6
:10CCE000684682783BA1032000F004FD6846C278C4
:10CCF00038A1032000F0FEFC6846027935A103202C
:10CD000000F0F8FC6846427932A1032000F0F2FC02
:10CD1000684682792FA1032000F0ECFC6846C279B6
:10CD20002CA1032000F0E6FC6846027A29A103202A
:10CD300000F0E0FC6846427A26A1032000F0DAFC0D
:10CD40006846827A23A1032000F0D4FC6846C27AA8
:10CD500020A1032000F0CEFC0C21684606948182BD
:10CD60003C212448FEF7EFF9224802210170C570EA
:10CD700004A941620021FFF769FC002804D0FF21CB
:10CD80001DA21331FFF7B0FA1A4818215438FEF7E4
:10CD9000DAF91848032154380170002141607D22DE
:10CDA0000172D201028241820AB070BD3A494E46F8
:10CDB0004F3A72756E6E696E673A206C755862658F
:10CDC00061636F6E5F696E69740D0A001731000050
:10CDD0007C1800203A494E464F3A6C75586265619E
:10CDE000636F6E5F696E666F3A20253032780D0A88
:10CDF00000000000C41A00202E2E5C2E2E5C2E2E69
:10CE00005C6D61696E2E630008B5002000F0A8FC1F
:10CE1000002804D0FF2133A2B231FFF765FA00F0F9
:10CE20000DFF0023334A05211846FFF7E5FA0028D5
:10CE300004D0FF212BA2B431FFF756FAFFF76AFCAA
:10CE40002DA1032000F030FC00200146684601704F
:10CE5000042232A17CDF002804D0FF2131A29E31C0
:10CE6000FFF742FAFFF70CFF32A1032000F01CFC91
:10CE70003748384900680090684600F067F9002894
:10CE800003D028A2A621FFF72FFA334800F04EF96D
:10CE90003148083000F04AF9012047DF002804D06B
:10CEA000FF2110A2BE31FFF71FFA1320C04377DF26
:10CEB000002804D0FF210BA2C031FFF715FAFFF7BD
:10CEC0004DFBFFF7C3F9FF24A63400F03BFB00281D
:10CED000FBD148DF0028F8D012A22146FFF704FA60
:10CEE000F3E700002E2E5C2E2E5C2E2E5C6D616909
:10CEF0006E2E6300F81900203A494E464F3A72757B
:10CF00006E6E696E673A206761705F706172616D05
:10CF1000735F696E69740D0A000000006C755862D9
:10CF2000000000002E2E5C2E2E5C2E2E5C6D6169A2
:10CF30006E2E63003A494E464F3A72756E6E696EB8
:10CF4000673A206164635F636F6E6669670D0A000C
:10CF500070DF0100ADBE01008418002070B51446DA
:10CF600082880E4605462088111D4118921C994260
:10CF700001D8FE2A01D90C2070BD521C32542088E1
:10CF8000FF21401C80B2208031542088401C80B298
:10CF900020808119288800F060FF2188401880B225
:10CFA0002080AA88002A09D0A968002908D0801901
:10CFB000FEF7B0F82088A98840182080002070BDB6
:10CFC000072070BDF8B50F460178144605460129C3
:10CFD00002D16878002806D02088821C9A422DD879
:10CFE000012902D006E00720F8BD69784118891CA4
:10CFF000994223D8181A801E86B268460680218876
:10D00000B81C081869467DDF0028EDD12878022871
:10D0100005D169460988B14201D809210AE00821F1
:10D02000012805D16878B04202D86A46108001E034
:10D030006846068068460088FE2801D90C20F8BDA5
:10D040002288401CB8542088401C80B2208039546B
:10D0500020886946401C20800988401820800020D4
:10D06000F8BD0000034940180068002800D00120E6
:10D070007047000000700040C20843075B0F0120AA
:10D08000895C984008407047012189074018006872
:10D09000002800D00120704700280FD00849094A15
:10D0A000096800BF00BF00BF00BF00BF00BF00BFD6
:10D0B00000BF914200D000BF0138F2D1704700009C
:10D0C000F41800200024F40070B5144CA27C022A4D
:10D0D00016D00222A2746268A260217400216174D9
:10D0E000E0600F48126842600E4A86151160012503
:10D0F00005602068002805D00B49012048600BE03E
:10D10000112070BD3046FFF7ADFF0028FAD0FEF7C2
:10D1100069FF0028F6D0A574002070BD781B0020A0
:10D120000075004000710040007300400021064A75
:10D1300041605168002902D15060704711464A6829
:10D14000002AFBD148607047781B002070B50C4D59
:10D150000C46A97C002901D0082070BD094A002195
:10D160001160002C06D0002800D107480178072064
:10D1700000F056F801202C60A874002070BD00005B
:10D18000781B00200071004084DF0100014901206C
:10D19000086070470070004070B50E4C0025207884
:10D1A000002801D0852513E00021A1606160216184
:10D1B000E160094800680126304002D1032100F0F7
:10D1C0002FF800F06BFC002801D10448866126701E
:10D1D000284670BD001B002000E100E00005004073
:10D1E00038B50020694608706846FFF783F9084C97
:10D1F0002078002801D1FFF7CFFFE068401CE060F5
:10D200000120A07068460078FFF792F938BD000051
:10D21000001B002010B5002801D1FFF713FB10BD43
:10D220008207D30EFF229A408907090E10B5994054
:10D2300000280BDA03071B0F083B9C080C4BA400CB
:10D24000E318DC6994430C43DC6107E08408094B74
:10D25000A400E418236893430B432360C106C90E5E
:10D2600001208840044908600449086010BD00009E
:10D2700000ED00E000E400E080E200E000E100E01A
:10D280000522120780008218072000021018026889
:10D2900003231B049A430260026809040A430260E4
:10D2A0007047000038B5084B05241B680093240222
:10D2B0006B46411805E085005D592D192D69401C0C
:10D2C00020C28142F7D838BD80DF010002494018F2
:10D2D00000210160704700000060004003494018D1
:10D2E0000068012800D00020704700000060004066
:10D2F000004870471DD3010070B5074D04462878DB
:10D30000002802D06878844204D0FEF7F1F90120A9
:10D3100028706C70002070BDD8180020F0B5C5B022
:10D3200017460022084600924D994B9A1E46511806
:10D330000391002801D00A2100E0002104AD0191F1
:10D34000002E15D16A46294600F0BEFC002870D098
:10D350003846FDF703FFC22800D9C22004460098D2
:10D36000224628183946FDF7D5FE0098001900908E
:10D37000009A0198111804A884183131451800202A
:10D3800003E020212170401C641C01998842F8D3DD
:10D3900000270398864207D3202020706070A07079
:10D3A0002870E41C6D1C2CE04B98864202D24A98EF
:10D3B000805D02E0311A4C98405C2246844601218F
:10D3C00002908B006046D8400007000F092801D961
:10D3D000373000E0303001235B1AD054491EF0D2C0
:10D3E00020209070D41CFDF791FE01680298085C23
:10D3F0008006C00E01D0029800E02E2028706D1C1F
:10D40000761C7F1C102FC4D30D2028700A20687052
:10D4100020202070009901980918433104A8009138
:10D4200000F048FA002804D00020009003988642BB
:10D430009ED3304645B0F0BDFFB5C7B008460025C5
:10D44000509F06AE1C46314605AA059500F03CFCEF
:10D45000002836D03846FF2701370300FEF7B5FA1B
:10D460000705131B333F4B5725004998FDF776FE00
:10D47000059905464018FF2817D870182A4649997B
:10D48000FDF748FE11E005982368391A3018499ACB
:10D49000FEF76AFA08E06068009005982368391A78
:10D4A0003018499AFEF760FA0546294605A8FFF7A5
:10D4B00075F90599002839D0B94237D806A800F087
:10D4C000F9F94BB0F0BDA168606800900191059832
:10D4D0002368391A3018499AFEF746FAE4E7201D06
:10D4E00007C86B4607C305982368391A3018499A4C
:10D4F000FEF73AFAD8E7201D0FC86D460FC505980C
:10D500002368391A3018499AFEF72EFACCE72046DC
:10D5100008300FC801AD0FC56068009005982368FA
:10D52000391A3018499AFEF71FFABDE70020C8E7FC
:10D530000048704739D4010010B50120FFF7DCFE28
:10D5400010BD0000F0B595B0FFF76AF9002802D0D1
:10D55000002015B0F0BD4B48446886682146314034
:10D56000890009180C94CD680BE02904A80D890DD9
:10D570004018041920463040810042480C94081895
:10D58000C568641CA807F0D000200890A807800F89
:10D590003D4B022807D0AA0AA805000F84460EA911
:10D5A0009646002059E02046304081003548641CF2
:10D5B0000818C068049486462804800D84463440C8
:10D5C000301B8000AF0D001D874222D92D490C3140
:10D5D000002807D02B4AA400A21814460C34C2B26B
:10D5E000381A03E00C460021FAB20846C0B2039094
:10D5F000019202910094A8065C69400F634672464E
:10D600000899A047B84213D1FF1C0498B9080C1818
:10D6100030E01C48A200101800210C30009002914C
:10D6200001970391A8065C69400F63467246E8E7DC
:10D63000164980050D40000C05430C9830408100D0
:10D6400010480818C56017E027463740BA000D4F4C
:10D65000401CD719FF68641C80C167466045F3D33E
:10D66000A80600971D69400F0EAB72460899A8479F
:10D67000002801D003484460FFF7D2F80121484058
:10D6800067E70000AC1B0020AC1F00203F00FFFF3D
:10D6900000B5044AFF23936000231360536000F039
:10D6A00059F800BDAC1B0020F8B5104D0E460746DA
:10D6B00000206946AC68FFF77BF8002815D00C48BD
:10D6C0003C21808888437907890E08430F2189010E
:10D6D00088438105890DB00201430098024622402B
:10D6E00092005219401CD1600090F8BDAC1B002084
:10D6F00088DF0100F7B5154C82B00E4607460120C1
:10D700006946A568FFF754F800281CD010483C2152
:10D71000008988437907890E08430F2189018843CE
:10D72000402108438105890DB0020143009802465B
:10D730002A4092001219D160401C009028408000BD
:10D7400000190499C16005B0F0BD0000AC1B0020B9
:10D7500088DF0100014A516110617047AC1F002051
:10D7600070B506460020FFF7C7FD040008D1FFF79B
:10D77000BFFD0546FFF7DCFE32462946FFF788FF6E
:10D78000204670BD4058002800D001207047032279
:10D79000120280184068084000D001207047012222
:10D7A00052075110886B496B41438818704700003D
:10D7B00070B501240B49600408600B494010886073
:10D7C000094940398860094D6C602F20FFF764FCDF
:10D7D000AC60074D00242F20AC60FFF75DFCAC70FF
:10D7E00070BD000080E100E04013014000100140E6
:10D7F000AC18002030B5FF220523CD7D002409326E
:10D800001B02C318002D8450986905D04B7ECA684E
:10D81000D054487E401C487630BD1FB501246B466D
:10D820001C701972019206C8684690471FBD00001F
:10D8300010B50446FEF7E6F800280CD0A007C00E8D
:10D84000002C0ADA2107090F08398908144A8900CF
:10D850008918C96906E0134810BDA108124A890059
:10D8600089180968C1400806800F042811D20028D1
:10D870000FD002280DD00D494B68E206D20E0120D0
:10D880009040002B08D0620992008B5803438B50C4
:10D8900004E00448401C10BD05490860002010BD8C
:10D8A00000ED00E00120000000E400E0D0180020BE
:10D8B00000E100E0F8B50746012000250C460A26E5
:10D8C0000090791922460020FDF71CFF2D18241A1C
:10D8D000002801D1761E01D0002CF2D10098F8BDAD
:10D8E000FFB50746806A81B0144600283DD0002568
:10D8F00038462030009033E00C20B96A68430E1897
:10D90000B088801CFE2802D90C2005B0F0BD22880A
:10D910000299401C885420881622401C80B2208026
:10D9200002990A542088401C80B220800299411834
:10D93000308800F092FA2188401880B22080B288A6
:10D94000002A0AD0B16800290FD0029BC018FDF749
:10D95000E1FB2088B188401820806D1C0098EDB252
:10D96000007BA842C8D80020CFE70720CDE7000001
:10D970001CB50F4901910091694660DF0446009A89
:10D98000019882420AD00B490220FFF7B3FEFFF74D
:10D9900006FF0099421A08A1022004E0002C04D0DE
:10D9A000224612A10120FFF7A5FE20461CBD000063
:10D9B0007018002040E001005344483A5741524E4D
:10D9C000494E473A52414D2073697A652073686F1A
:10D9D000756C642062652061646A75737465642087
:10D9E000746F2030782578200D0A00005344483A9F
:10D9F0004552524F523A73645F626C655F656E6167
:10DA0000626C653A206572726F7220307825780DED
:10DA10000A00000070B50E46054614461421104653
:10DA2000FDF791FB012000212080216121732672E6
:10DA30006572002D00D0A072002070BD10B5FEF7F9
:10DA400031FC10BDF8B5002903D08C070025002C4F
:10DA500001D00720F8BD0E4E0E4FB160728073608A
:10DA600039680124214003D00A49254680310C60E1
:10DA7000094910DF002803D0002DEBD03C60F8BD31
:10DA80003470FFF7ADFB1620FFF7D2FEF8BD0000A3
:10DA9000E018002000E100E03DDA010001480078D4
:10DAA00070470000E0180020FEB51F4C0025A76855
:10DAB000606802906846FEF771FF0190FFF72CF84E
:10DAC00006460198002822D000230098616817E0DC
:10DAD0000E680A46864202D9301A086012E0801B9E
:10DAE000F31800261660D668D169B446002E07D018
:10DAF000FE183602360A566066469660D5611546AF
:10DB00000029E5D128466160FFF75CF806E0284669
:10DB1000FFF758F8002801D1002E02D00298FEF736
:10DB2000A5FE0020E070FEBDAC18002001200249D7
:10DB3000000508607047000000E200E010B50E4BE1
:10DB40005968002906D002680C68A24204D8A21ABB
:10DB50000A60C161586010BD0B4604E00B46C969FC
:10DB6000121B002904D00C689442F7D3A41A0C604D
:10DB70000260C161D86110BDAC180020F8B51E4D1F
:10DB80006C68002C37D01D4800274068A968401AEF
:10DB90000602360A2068B0421BD8361AC719224638
:10DBA000107CE469002812D000201074EB68002B70
:10DBB0000AD0916950699847002808D0FF2110A227
:10DBC0006A31FEF791FB02E0516990698847002CA9
:10DBD000E0D129786878814206D1401CC0B26870D3
:10DBE000022801D10020687003490006800D183119
:10DBF0000F50FFF79BFFF8BDAC1800200015014047
:10DC00002E2E5C2E2E5C2E2E5C2E2E5C2E2E5C2E4E
:10DC10002E5C636F6D706F6E656E74735C6C6962A1
:10DC20007261726965735C74696D65725C61707054
:10DC30005F74696D65722E630000000010B515A158
:10DC40000320FFF731FD00231A4A05211846FEF78D
:10DC5000D3FB002804D0FF21174A5731FEF744FBBD
:10DC6000164A01211648FEF7B1FB002804D0FF2117
:10DC7000114A5C31FEF738FB1148124A0121001DA0
:10DC8000FEF7A4FB002804D0FF210B4A6131FEF708
:10DC90002BFB10BD3A494E464F3A72756E6E696E57
:10DCA000673A2074696D6572735F696E69740D0AF5
:10DCB000000000003819002024CF0100D5C5010064
:10DCC00074DF0100D5C1010010B5144602460120E1
:10DCD000002A0BD008461368FF2106A20131FDF788
:10DCE00043FE01462046FEF759FD10BD002121608C
:10DCF00010BD00005B253038645D0000FF221D323E
:10DD0000002383508B8A8A68D25C8B8A5B1C8B824F
:10DD1000052109024018C26170471FB500226B46F9
:10DD20001A70197281680191827506C86846904719
:10DD30001FBDF0B50C46012185B005464902FFF72D
:10DD400026FD032109026F180026002826D0FF2196
:10DD500025312846FFF716FD00281FD0FF2025306B
:10DD60002E5081208000B860A07E002801D10120C3
:10DD700068600221684601700920C00129180868FE
:10DD800008600390E17D68460172E0680190E675E5
:10DD9000267606CC6846083C90472DE004212846AC
:10DDA000FFF7F5FC002827D0FF2109312846FFF7AF
:10DDB000E9FC002820D021462846FFF71BFDE07D26
:10DDC000617E884218D1207E002807D0617EE268FB
:10DDD000E0752069E060267666760AE0A07E00287D
:10DDE00001D10120686081208000B860E675617E05
:10DDF000E2682046FFF711FDFF271D373946284608
:10DE0000FFF7C0FC00280FD0A08AA17D884204D271
:10DE100021462846FFF772FF06E0EE51A17D00295A
:10DE200002D02046FFF779FFFF27453739462846BD
:10DE3000FFF7A8FC00280ED0EE51A07E002801D0EC
:10DE400001202860E07D002805D0E675617EE2684B
:10DE50002046FFF7E2FC05B0F0BD0870000A4870EC
:10DE60000220704710B509494B788C785A1CD2B201
:10DE7000944200D100220C78944201D1002010BDC0
:10DE80000270486818214B43C01810BDBC18002010
:10DE9000FFB583B016460C9D0D9C1F4602220095CF
:10DEA0000194039800F00CF8002807D13B4610229B
:10DEB000314600950194039800F002F807B0F0BDD8
:10DEC000FFB583B0074600200C9C86462688054691
:10DED0003AE07868A9004218118868468180518824
:10DEE000C1800022694601A865DF002839D1684653
:10DEF00001780598814226D17046002801D0002281
:10DF000000E002222088891842180D998A4227D8F9
:10DF1000714600290AD1401C80B22080069A0499DB
:10DF200011542088401C20800120864621880698B4
:10DF30000A18694601A865DF002812D169462088C1
:10DF40000978401820806D1C3888A842C1DC7046D2
:10DF500000280AD02088801B401E80B2FF2802D9EA
:10DF60000C2007B0F0BD069988550020F9E70000A5
:10DF700003000000F8180020181900200100000715
:10DF80000000005003000000290000000100000014
:10DF9000010000000100000001000000010000007D
:10DFA00001000000010000000200000000404040AD
:10DFB000404040404040414141414140404040405C
:10DFC0004040404040404040404040404005020208
:10DFD00002020202020202020202020202202020C7
:10DFE0002020202020202002020202020202909023
:10DFF0009090909010101010101010101010101021
:10E000001010101010101010020202020202888874
:10E010008888888808080808080808080808080880
:10E020000808080808080808020202024000000068
:10E03000ADDF01004F766572666C6F770D0A0000E8
:10E040005344483A5741524E494E473A73645F62CF
:10E050006C655F656E61626C653A2052414D20735C
:10E06000746172742073686F756C642062652061DE
:10E07000646A757374656420746F20307825780D38
:10E080000A0000002E2E5C2E2E5C2E2E5C2E2E5CA6
:10E090002E2E5C2E2E5C636F6D706F6E656E7473CA
:10E0A0005C736F66746465766963655C636F6D6DE0
:10E0B0006F6E5C736F66746465766963655F6861D3
:10E0C0006E646C65725C736F6674646576696365B3
:10E0D0005F68616E646C65722E630000FCE0010095
:10E0E0007018002088000000E4B9010084E10100FC
:10E0F000F818002058110000F4B9010000000000D9
:10E100000000000000000000020000010008000004
:10E11000082000000000000008400000000000008F
:10E12000021543795068794D6564696142656163A0
:10E130006F6E00010008B300000000000000000046
:10E1400000000000000000000000000000000000CF
:10E1500000000000000000000000000000000000BF
:10E16000000000000000000034E00100000000009A
:10E17000000000000000000000000000000000009F
:04E180000024F40083
:040000050001B0C185
:00000001FF
