:020000040001F9
:10B00000D833002049B1010063B1010065B10100EE
:10B010000000000000000000000000000000000030
:10B0200000000000000000000000000067B1010007
:10B03000000000000000000069B101006BB10100D8
:10B040006DB101006DB1010021B901006DB10100C8
:10B050006DB1010000000000F1B501006DB101000B
:10B060006DB101006DB101006DB101006DB1010064
:10B070006DB101006DB101006DB101006DB1010054
:10B080006DB1010039B801006DB101006DB1010071
:10B0900059B801006DB1010061B801006DB1010046
:10B0A0006DB101006DB10100000000000000000062
:10B0B0000000000000000000000000000000000090
:10B0C0000348854600F046FA0048004795F0010025
:10B0D000D8330020401E00BF00BF00BF00BF00BF2C
:10B0E00000BF00BF00BF00BF00BF00BF00BFF1D165
:10B0F00070470000401E00BF00BF00BF00BF00BF80
:10B1000000BF00BF00BF00BF00BF00BF00BFF1D144
:10B1100070470000056885F308884068FF2464B222
:10B12000EFF30585002D01D1A646004725460646CA
:10B1300021273FBAF0B40024002500260027F0B4F0
:10B14000F92040B2004700000321094802680A4381
:10B150000260084802680A430260074880470748BF
:10B160000047FEE7FEE7FEE7FEE7FEE7FEE700003A
:10B17000240500405405004081B80100C1B0010021
:10B1800030B50B46014600202022012409E00D467F
:10B19000D5409D4205D31D469540491B2546954007
:10B1A00040191546521E002DF1DC30BD70B500244B
:10B1B0002546002801DA01244042002901DA012550
:10B1C0004942FFF7DDFFAC4200D04042002C00D0E6
:10B1D000494270BD10B5431A934209D283188818AA
:10B1E00003E0401E01785B1E1970521EF9D210BD9B
:10B1F00003460B439B0703D009E008C9121F08C090
:10B20000042AFAD203E00B78491C0370401C521E3A
:10B21000F9D210BDD2B201E00270401C491EFBD22F
:10B2200070470022F6E710B513460A460446194651
:10B23000FFF7F0FF204610BD421C0178401C00299A
:10B24000FBD1801A704730B504460020034600E069
:10B250005B1C934203D2E05CCD5C401BF8D030BD58
:10B26000F0B51FB488B00B9909980024484009999B
:10B27000C00F490049080991C0070B990090490087
:10B2800049080B9109990898A646084303D00B99E1
:10B290000A98084303D1002001460DB0F0BD09987B
:10B2A00001244000420D4800410D09982405000387
:10B2B000000B204309900B980003000B20430B90D8
:10B2C00050181A494018002201901446104601E017
:10B2D000032801DA034600E003239C46C11A0AAEA4
:10B2E0000AE05F0008ADED5B4F00F75B7D43002790
:10B2F000AA187C415B1E491C6145F2DD410004AB8C
:10B300005A522104120C0A43240C401C0828DFDB8B
:10B31000019802900099704601910090059B049A53
:10B320000799069800F0C2F8B7E700000DFCFFFF90
:10B3300070B54B005B0803430BD04B005C0D00263F
:10B3400033466542B341D417AD1AA34102DB002056
:10B35000014670BD12053018514170BD10B5002274
:10B360009623114600F05BF810BD00000EB50549AC
:10B370000291002100910A460B46019100F096F8D7
:10B3800003B000BD33040000410040020122400A26
:10B39000D205090E80187F2901DA0020704796290E
:10B3A00003DC9622511AC84070479639884070478E
:10B3B0004A0009030123090B1B051943094B10B56A
:10B3C000520D9A4201DA002010BD064B34339A42E6
:10B3D00003DC9A1A00F00AF810BD0349511888409E
:10B3E00010BD0000FF030000CDFBFFFF10B5202AB9
:10B3F00004DB0846203AD040002110BD0B46D34064
:10B40000D0402024A21A91400843194610BD0029BB
:10B4100004DA401C490001D140084000704770B474
:10B420000024050C05D11024000402D1002922D0EB
:10B430001124050E01D108340002050F01D1241D8D
:10B440000001850F01D1A41C8000002801DB641CD1
:10B450004000002908D020252E1B0D46F540A140B4
:10B4600000D00121294308431B1B0106DB1D000AF4
:10B47000002B02DA002070BC7047DB05181880181A
:10B480000029F8DA401C4900F5D170BC40084000A2
:10B49000704710B5002B08DA0024401C6141921857
:10B4A0005B411A4301D14008400010BDF0B51FB404
:10B4B00082B005460C0003D0084600F035FA02E0E1
:10B4C00000F032FA2030024600902146284600F073
:10B4D00053F8049B059A04460F461843114308434A
:10B4E00003D12046394607B0F0BD1846104317D0A7
:10B4F000009840210A1A18460599FFF777FF05467C
:10B500000E46009A0599049800F036F8084301D0D9
:10B51000012000E00020C11705430E432C433743B0
:10B5200000990E986305401A7905E40A0A30002252
:10B530000C43FD0A002802DA00200146D3E701058A
:10B54000101969410C9C0D9D00196941FFF7A1FF7D
:10B55000C9E70000064C0125064E05E02046E368D9
:10B5600007C82B4398471034B442F7D3FFF7ACFD1C
:10B57000A80A0200C80A020010B5202A04DB01460E
:10B58000203A9140002010BD914020239C1A034690
:10B59000E3401943904010BD70B58C180578401CED
:10B5A0006B075B0F01D10378401C2A1106D102788A
:10B5B000401C03E00678401C0E70491C5B1EF9D14C
:10B5C0002B0705D40023521E0DD40B70491CFAE73B
:10B5D0000378401CCB1A921C03E01D785B1C0D7095
:10B5E000491C521EF9D5A142D8D3002070BD0000DD
:10B5F000F0B50025FF2487B0013401262F460395BE
:10B60000204604F0A1F8002808D04948406830429C
:10B6100004D048480021201835430160241D7600DD
:10B620007F1CA4B2042FEBD3FF207D3004F08CF8F4
:10B63000002807D0404900200860480705433F48DC
:10B64000006903903E4C280713D001270026384696
:10B6500028420AD03B48B200111808690969C004A1
:10B66000C00E8903A258890F90477F00761C042ED4
:10B67000EDD3002D59DA00200290401E4FE0A119B1
:10B68000403108788506AD0E42B2521C3BD00121F4
:10B69000A9400091059A114235D0800901902846B1
:10B6A00001F042FF800020580490002804D0019847
:10B6B0000099032804D006E00198032823D10099BB
:10B6C000029808430290204AA80080180068039A54
:10B6D0008003800F114202D0022802D013E0032819
:10B6E00011D10199032907D102281CD00221284633
:10B6F00004F01AF87F1CFFB20498002803D0049AC3
:10B70000284601999047761C042EB8D3002F0CD000
:10B710000A4800690399884207D0039002980027DD
:10B720003E460590ABE70321E1E707B0F0BD00001E
:10B7300000630040006000407C6100400005005054
:10B740004C2800200065004000070050FFB591B074
:10B750000646002415461C2101A80094FFF761FD50
:10B76000694611200894087048708878F9221040C2
:10B77000801C8870069108791A99EF231840F727E2
:10B78000C9073840090F0843FD2108401499C9072B
:10B79000890F08436946087102940494079408A924
:10B7A000059488780121384018400B46103308A9C9
:10B7B0000B7001210B461040103308A94B70801C00
:10B7C0000122104388708A7169468E8409A80A9004
:10B7D00008A80B900D864C86142088861298044B7E
:10B7E0000E9058881B1D0AAA01A9A2DF15B0F0BD52
:10B7F0002C2500208307FF22DB0E9A408907090EC3
:10B80000994000280BDA0007000F08388308084821
:10B810009B001B18D86990430843D8617047830880
:10B8200004489B001B181868904308431860704731
:10B8300000ED00E000E400E010B5064900200860DB
:10B8400048608860C860034940390860486004F077
:10B85000DBFE10BD4011014010B504F06BFE10BDC1
:10B8600010B506484068002805D08047002801D060
:10B8700000F012FB10BD03F079FA10BD3022002059
:10B8800010B503F0BDFA002805D01F491D484860D7
:10B89000C8131E4988611E48018CC9B201290BD109
:10B8A000828C120708D1028D1206120F042A03D1CE
:10B8B000828D1206120F0AD0012921D1818C09072D
:10B8C0001ED1018D0906090F0A2904D007E0114A8B
:10B8D00001219160F5E7828D1206120F05D00D2926
:10B8E0000ED1808D0006000F0AD10B480168012996
:10B8F00004D00A49016001680129FCD1C0214161DD
:10B9000010BD0000DFFF07C000050040006C0040D4
:10B91000C00F00F00006004000EC064075930000E8
:10B9200010B504F0D7FE10BD2021020C01D010216B
:10B930001046020A01D008391046020901D0091F39
:10B940001046820801D0891E1046420801D0881E88
:10B950007047081A704730B47446641E2578641C1A
:10B96000AB4200D21D46635D5B00E31830BC184754
:10B9700002E008C8121F08C1002AFAD170477047B8
:10B98000002001E001C1121F002AFBD17047F7B56A
:10B9900084B00025168807461580406B14460028A1
:10B9A00013D003780598032E51D30221017021880A
:10B9B0001122491C89B2218042542188491C89B234
:10B9C000218043542088401C2080386B00281DD0E3
:10B9D00005462088059902461232B24237D8112214
:10B9E0000A5420881022401C80B220800A542088EB
:10B9F000401C20800F202A5C2388401ECA542288C5
:10BA000040B2521C22800028F5DA0025384620304A
:10BA10000290807B002806D033462246059903F029
:10BA20003BFA050014D10298407B002806D032462C
:10BA30002146059801F02AF8050009D1B8780028B8
:10BA400023D0059886462088001DB04202D90C20DC
:10BA500007B0F0BD684679DF0028F9D121880320BE
:10BA60007246505420881921401C80B22080115405
:10BA700020887146401C80B22080411868460088AA
:10BA800004F0BAFE218840182080F878002817D0EA
:10BA9000218803230A46FB56C91C0598B142D6D813
:10BAA0000221815421880122491C89B221804254FB
:10BAB0002188491C89B2218043542088401C208061
:10BAC0007868002817D021880023C3560A46C91C6D
:10BAD0000598B142BBD80221815421880A22491C11
:10BAE00089B2218042542188491C89B22180435463
:10BAF0002088401C2080388900280AD000943846CD
:10BB00000196062202210830059B04F0F4FE050090
:10BB10009ED1388A00280AD0009438460196072220
:10BB200003211030059B04F0E6FE050090D1388B10
:10BB300000280AD0009438460196152214211830A6
:10BB4000059B04F0D8FE050082D1386A002806D093
:10BB500033462246059901F08BFE0500D8D1786A5C
:10BB6000002806D033462246059903F06FFB0500F6
:10BB7000CED10298007B002807D0334622463846B3
:10BB8000059904F0FFF90500C2D13878002807D0E4
:10BB9000334622463846059903F03CFC0500B7D1F0
:10BBA000284655E770B5144C0025607801280FD160
:10BBB00074DF2078002802D0042804D102E0042099
:10BBC000207000E0257000F037F8032000F060FDE1
:10BBD000607802280FD174DF2078002802D0032873
:10BBE00004D102E00320207000E0257000F024F86A
:10BBF000032000F04DFD70BD8020002010B5012213
:10BC00000221002001F0BCFA002801D0072812D13F
:10BC100007220221012001F0B3FA002801D00728F1
:10BC200009D100210A22084601F0AAFA002801D011
:10BC3000072800D1002010BDF0B54148B5B0C0685C
:10BC40003190404830900E2020A988873E480883D4
:10BC50003C4C30992F98683C2891279025780427F0
:10BC60000026002D05D0012D03D0022D01D0062D78
:10BC700011D14C2120A881843248172128382B90DB
:10BC800020A80185382101A8FFF7CBFA6846067184
:10BC9000C77129A80A900124032D02D0042D04D0D5
:10BCA00017E028480E212B9003E026480E3014217F
:10BCB0002B9020A80185382101A8FFF7B2FA684629
:10BCC0000671C771848231A8069026A80B9008A837
:10BCD00004741C4811211138349030A881811B490B
:10BCE00020A80186339834992E912D9038210FA8E1
:10BCF000FFF797FA2CA8199018A80472022108A837
:10BD0000017718211248FFF78CFA1149A020088208
:10BD100024211DA8FFF785FA20A8047009480D4BBF
:10BD200068380069219022961DAA0FA9009601A8E3
:10BD300000F092FB002801D000F0AEF835B0F0BD65
:10BD4000E4090200E8200020AAFE00000A18000012
:10BD50003825002083F70100044842680121C90505
:10BD60000B46934383600A40C26070470005005051
:10BD700070B50024064D06E06968E000085C01210A
:10BD800003F0E6FB641C28788442F5D3002070BDE4
:10BD9000F4210020F8B515460C460646052A01D2C6
:10BDA0000720F8BD03F0A6FC002803D103F078FCBF
:10BDB0000028F6D1104900204E600C70C8608D60DC
:10BDC00008610E4D0DE0E0006968801900918178EE
:10BDD0006A46517000780A4A694603F009FC002857
:10BDE000DFD12046641EE4B20028ECD1054A0021D0
:10BDF000024800F089F8F8BDF4210020A00A0200F2
:10BE0000A1EC010039DA01003EB50446042001909E
:10BE1000164802906946204602F0C8F8002805D06E
:10BE20001349884201D000F037F83EBD0F480C3866
:10BE3000017BC90714D00F4A0C21C088A7DF002856
:10BE40000ED00D4988420BD0082809D0891C8842A1
:10BE500006D0112804D00949884201D000F01CF80E
:10BE6000204602F059F80028DDD13EBD8C2000208C
:10BE700040800000FFFF000002300000013400009D
:10BE8000BFF34F8F03490248C860BFF34F8FFEE7EF
:10BE90000400FA0500ED00E00EB5002102900091CB
:10BEA0006A4601910148FFF7EBFF0EBD014000001B
:10BEB000014B1B68184700002828002038B50C46A5
:10BEC000A2680C235A43064B09789D58054A126A0A
:10BED00000920246204608302369A84738BD00007A
:10BEE0000C2B0020D021002010B5064914230A781D
:10BEF0005A435118091DFFF7E1FF042004F078F9B7
:10BF000010BD0000B0280020094B9B68002B07D013
:10BF1000002A07D0002805D00068037C002B03D03E
:10BF20000820704707207047417442610020704725
:10BF300008220020FFB59007002581B014460E4668
:10BF4000002832D11B4F002C31D003F081FF049820
:10BF50007861032038702246BC60183400203346D4
:10BF600018214B43C10089180D704D708E704C60C4
:10BF70001C19401C0328F5DBFD607D7001240E4870
:10BF8000BD702405046003211420FFF733FC0B4827
:10BF900004600B4C0198A06003211120FFF72AFCDC
:10BFA00060683861002005B0F0BD0720FBE7BD6088
:10BFB000FBE700000822002080E200E000E100E052
:10BFC00000150140FEB50D461B4917468968044619
:10BFD00000292AD0002C28D0052D01D20720FEBD33
:10BFE0006069002821D0607C012820D0002604F060
:10BFF00045FCC0001049019089684018694604F06A
:10C0000067FC002815D0012101700C494460496883
:10C010000830E2C0084901988968411868460078EC
:10C02000487004F0C9FA0020FEBD0820FEBD2E466F
:10C03000DDE70420FEBD00000822002000150140BD
:10C04000F8B5134D0446A96800291CD0002C1AD05D
:10C050006069002817D00026267404F00FFCC70082
:10C06000A8686946381804F033FC00280DD0022176
:10C0700001704460A868391868460078487004F078
:10C080009BFA3046F8BD0820F8BD0420F8BD00003A
:10C0900008220020F0B50546007D002493B00E462E
:10C0A00000280DD001200146103168460394017329
:10C0B000717B4173817BF9200140891C6846817343
:10C0C0001C2104A8FFF7ADF86946087C022108434B
:10C0D000694608742A7DEF21002A02D010221043FD
:10C0E00000E008406A461074059407940894287D7F
:10C0F000002800D003A8099001270A9410469771E0
:10C100002E4A82800094B27B0270F27B427080786B
:10C11000F9221040801CE72210404108490068467F
:10C120008170317B017214210BA8FFF77AF801A806
:10C130000B9068460C908786C486078702A80F90EC
:10C14000A888AB1D0BAA04A9A2DF002833D1B068D0
:10C1500000282ED068468771194981800094317C6F
:10C16000017000200146684641708078F92108403E
:10C17000801CE7210840410849006846817011A8E9
:10C18000B16800F052FE064614210BA8FFF749F8EB
:10C1900001A80B9068460C908686C486068711A875
:10C1A0000F902A46E8880E320BA9A3DF002802D19F
:10C1B00000E0EC81002013B0F0BD0000192A00005F
:10C1C000082900001C4A10B5904201D3642010BD1C
:10C1D00019496439884207D9101A3A214843642121
:10C1E000FEF7E4FF642109E0144A904209D9081AD5
:10C1F00018214843A021FEF7D9FF2A21081AC0B20E
:10C2000010BD0F49884208D9101A0C214843FF215C
:10C210002D31FEF7CBFF1221F0E70A4A904208D9F0
:10C22000081A06214843FF215531FEF7BFFF0621BA
:10C23000E4E7002010BD0000B80B0000B40A0000C5
:10C24000880900003408000010B500F017F874DF0A
:10C25000094908460A79573082728978C1720146C5
:10C260004F390A7882734978C173FFF7E5FC0320E0
:10C2700000F00EFA10BD00008020002070B503F021
:10C280001FF92F49012008602E4C2F4E2F4D03E03F
:10C29000B068FFF763F860612868C007F8D160698B
:10C2A000FFF772F8274980B2020A08310A70487015
:10C2B000FFF75CF8264A274BFEF7D2FF0922D2434C
:10C2C000FFF736F80022244BFEF7CAFFFFF770F89D
:10C2D00080B26081A178491CA170FFF773FF2071C3
:10C2E0000146207806281AD160891C4A904209D359
:10C2F0001B4A1279FF2A02D0A0235A4301E01922D7
:10C3000092012261AF221201831AC82B02D24B2361
:10C310009B012361904202D24B20C0012061104852
:10C32000143000F0ABFA002809D0082807D00D49D6
:10C33000884204D00C49884201D0FFF7ADFD70BDA2
:10C340000070004080200020007500400074004014
:10C35000CDCCCCCCCCCC0C4000408F40B80B0000F6
:10C36000D024002004300000013400001CB50A2154
:10C370006846C180C82181801A48009003F0A6FB5E
:10C380001949684603F026FC174A0121083216486D
:10C3900003F004FB1449002320220831134803F062
:10C3A000C3FB114A022110320F4803F0F7FA0E497D
:10C3B0000E48002320221031203003F0B5FB0A4A3A
:10C3C00003211832084803F0E9FA07490748002317
:10C3D00020221831343003F0A7FB002801D0FFF7EA
:10C3E0005BFD1CBDB5F20100A02000209C240020B4
:10C3F000F0B50C4693B01F216A461180072600272E
:10C400009180002809D0C17849070DD502A9FFF70E
:10C41000BEFA002809D102AD01E000251780002CEA
:10C420000ED0E078002802D0304613B0F0BD01AA4B
:10C430000AA92046FFF7ABFA0028F6D10AAA02E0C3
:10C4400068460022878068468088C3B268460088B4
:10C45000C1B2284672DFE8E770B50D46049916466A
:10C46000040042D0002E40D0424800224271C360F6
:10C470000161242231464048FEF7ACFE00F0D4F8BA
:10C480003D4934310846103801602031816038213F
:10C490005C38FEF7C6FE3848217838380170A1783C
:10C4A0008170E178C170617841706269216942618F
:10C4B0000161E268A168C26081600146E369A26926
:10C4C000CB618A61616A002919D00146AC3102460C
:10C4D000B83241628A60636A1B880B80616A436A72
:10C4E000898899800021436A06E00E2070BD666A43
:10C4F000B668765C5654491C9E888E42F7D8A16A6D
:10C5000000291CD01C4AAC3211460C398A60816269
:10C51000A36A9B888B80A16A836A0988198000219D
:10C52000836A04E0A66AB668765C5654491C9E8805
:10C530008E42F7D82C210A5D0F4918390A73216AF7
:10C54000002909D00B4914310162226A52884A80BD
:10C55000216A026A098811806168002904D00549AE
:10C56000891D416061684160034829463838FFF7FA
:10C570003FFF70BD30210020F425002010B5028857
:10C580001C4C102A17D00021112A1AD01B2A11D1B5
:10C59000007A00280ED1607901281ED0022822D00E
:10C5A000032822D0042805D12171E2680846002A18
:10C5B00000D0904710BD817D0129FBD1808820816A
:10C5C00010BD6170808821898842F9D1012005E081
:10C5D00021690029F4D0884710BD022000F058F8E6
:10C5E0000028F5D110BD0320F8E7032020710420B6
:10C5F000F4E700003021002010B5022801D0032804
:10C600000ED1084C207800280AD0002020706079D4
:10C6100000F03EF8002803D02169002900D08847A7
:10C6200010BD00003021002010B507210148FEF7A1
:10C63000F8FD10BD4821002010B5134800780128EE
:10C640001FD1124C607800281BD16079002802D0DD
:10C6500074DF002816D101200B496070062038399C
:10C66000C870094800213838FFF7C2FE002809D1F8
:10C67000607900F00DF8002803D02169002900D06E
:10C680008847002010BD0000F42500203021002044
:10C69000F0B5784C87B06071002606A8069603F0C6
:10C6A00069F90127082802D0002808D104E006A86B
:10C6B00002F0E2F9002804D10698002801D0277082
:10C6C000D4E0FFF7B1FF6C4D6878002802D06079A4
:10C6D000012807D0A87800280CD06079012801D063
:10C6E000022824D1E168002903D0E7700820884798
:10C6F00000E0E6706079012808D16878002809D048
:10C700005C48193003F0CCF8002803D06079022887
:10C7100002D00CE002206071A878002805D05548AE
:10C72000193003F0BDF8002801D103206071287B87
:10C73000002804D16079032801D104206071287E8B
:10C74000002804D16079042801D166712671E1685E
:10C7500000290AD06079032801D0042805D128785F
:10C76000002802D06078002817D0A67018216846EB
:10C77000FEF757FD684606700196067203966079CB
:10C7800001280ED0022815D03B4E243637465C3F98
:10C7900003281BD004285DD13AE0A7700720884702
:10C7A000E4E73448183001906846077046820682F4
:10C7B000277152E02F481830019068460770298988
:10C7C0004182A98801820220207146E0A88A694638
:10C7D0004882288A08822848243004F0FBF8002880
:10C7E00005D02878002802D06078002801D00320E6
:10C7F0002FE002206946087204200396F8701E4854
:10C8000000213838FFF7F4FD002830D1052020E062
:10C81000A88B69460882288C48821748243004F087
:10C82000D9F8002805D02878002802D060780028A0
:10C8300001D004200DE0022069460872042003960E
:10C84000F8700D4800213838FFF7D2FD00280ED1CE
:10C85000062020716079002803D0684673DF002825
:10C8600005D1E168002901D020798847002007B070
:10C87000F0BD000030210020F425002073B586B003
:10C8800004002FD06A46217C127F0020914227D0DD
:10C8900000250126684600950680458007A801907E
:10C8A000E188608A6A46A4DF002819D16846007FC3
:10C8B0002074608A0D49884216D0207D002813D04C
:10C8C0000295039504950595E18868460181867275
:10C8D00041888181049001980590608A02A9A6DFB1
:10C8E00008B070BD0E20FBE70820F9E7FFFF00004D
:10C8F00038B50D4604001AD0002D18D028682060E5
:10C900000020C043608228792075FF202074012117
:10C910006846817007490180221D69460120A0DF19
:10C92000002803D129462046FFF7B4FB38BD0E206E
:10C9300038BD00000F18000038B5002824D00029A9
:10C9400022D00A88102A1AD0112A1AD0502A1BD1B4
:10C95000027D002A18D0891D0A8843899A4213D182
:10C960004A89022A10D10268002A0DD04B7B0C7B29
:10C9700019022143C907C90F07D0002106E08988A1
:10C9800001E00021C943418238BD01216B46197085
:10C990006946904738BD000070B5054601461C2227
:10C9A0000E48FEF717FC0E4C002626702968002959
:10C9B00006D00822201DFEF70DFC201D7ADF02E0C4
:10C9C0000748001D7BDF002807D1401E608066708D
:10C9D000044A00210448FFF797FA70BDE0260020C2
:10C9E0005021002019080200300A0200F8B5214C3D
:10C9F000028800271E4DE689102A15D01E49112AEB
:10CA000021D0122A2DD0502A1CD1801D0288B2427A
:10CA100018D14289022A15D1427B037B10021843A8
:10CA2000C007C00F0CD112E0818869800146104810
:10CA3000082218310C30FEF7CDFB6F70002E01D1AB
:10CA400000F05EFFF8BD0020C04368806F7008688A
:10CA5000FFF7F6FA0028F5D0A1690029F2D088473F
:10CA6000F8BD0822811802480C30FEF7B3FBE7E757
:10CA700050210020E0260020300A020010B50248B4
:10CA80000068FFF7DDFA10BD300A02007CB50546EC
:10CA900008880C460930904201D90C207CBD6846BC
:10CAA00071DF0028FAD121880820685420881B21D2
:10CAB000401C80B220802954208800A9401C80B2EC
:10CAC0002080401906220131FEF784FB2088694648
:10CAD000801D80B220800978002900D001212954CE
:10CAE0002088401C208000207CBD000030B585B02F
:10CAF0000D46040039D0002D37D06868002834D0A6
:10CB00000020C0431A4B20800FCB049301AB07C316
:10CB1000184869460880891C01A863DF002822D1D3
:10CB2000221D69460120A0DF00281CD168468078BC
:10CB3000A071204601F06AF9002814D1204601F0C6
:10CB400021F900280FD12946204601F09FF900283D
:10CB500009D16868A062A868002800D0E062064990
:10CB600001200870002005B030BD0E20FBE700005A
:10CB7000340A020030150000642100203EB5002870
:10CB800028D0002926D0826A002A23D00A88102AB9
:10CB900021D0112A30D0502A1FD0512A1AD10A464A
:10CBA0000446891D0878022814D14888238A9842AF
:10CBB00010D1907B04280DD006280BD0052809D071
:10CBC000891C204602F0F4FD002803D0E16A002908
:10CBD00000D088473EBD898810E0CB880289934207
:10CBE000F8D108226B461A700A7C1A721231019130
:10CBF000826A694690473EBD0021C94301803EBD1F
:10CC000030B585B0002822D00388134CA34220D031
:10CC1000124B1B78002B1CD0104B10255B1C1D7079
:10CC20005970002401259A70032269460A820094F3
:10CC3000019402940394028A0A808D708C8004A966
:10CC40000291039300886946A6DF05B030BD0E202F
:10CC5000FBE70820F9E70000FFFF00006421002047
:10CC60007FB504460121684681714A4981804A4A5C
:10CC700001A90120A0DF00287ED1228825463C356D
:10CC8000002A09D044482B46801C00904348616824
:10CC900000F052FC00287BD12289002A0AD03E48AD
:10CCA0002B460A3000903D48E168401F00F044FCEC
:10CCB00000286DD1228A002A0AD037482B4612302C
:10CCC000009036486169001F00F036FC00285FD1F3
:10CCD000228B002A0AD030482B461A3000902F4869
:10CCE000E169801E00F028FC002851D1228C002A26
:10CCF0000AD029482B46223000902848616AC01E7D
:10CD000000F01AFC002843D1228D002A0AD02248C4
:10CD10002B462A3000902148E16A401E00F00CFCAE
:10CD2000002835D1216B00290ED002A803F0CCFBDE
:10CD300019482B46323000901848082202A9801F5B
:10CD400000F0FAFB002823D1606B00280BD01249B9
:10CD50002B463A310091027901681048401C00F0DE
:10CD6000EBFB002814D1A16B002910D002A802F01F
:10CD7000E5FD0948423000E00AE0009007482B46F4
:10CD8000072202A9273000F0D7FB002800D100209D
:10CD900004B070BD0A1800006C210020292A000090
:10CDA00010B5044602F0F0FA2088112818D0204669
:10CDB00001F0E0F921461448FFF7BEFD2046FFF7D9
:10CDC00015FE204600F014F90F4821461830FFF7F1
:10CDD000D5FE21880D4810290AD011290DD109E06E
:10CDE000BFF34F8F0B490A48C860BFF34F8FFEE770
:10CDF000A18801E00021C943C1802046FFF7BEFBA6
:10CE0000204602F059FA10BDE424002080200020C2
:10CE10000400FA0500ED00E070B504460D46084632
:10CE2000FEF70AFA2080656070BD0A7802704978C2
:10CE3000417002207047000000B51C4887B0806830
:10CE40000590002348221A4905A803F021FA00287A
:10CE500001D0FFF721F86A460121002003F000FA13
:10CE6000002801D0FFF718F801206946087311481F
:10CE700003F03AF8002801D0FFF70EF8684603F0F7
:10CE8000E5F9002801D0FFF707F80B4803F0D4F9C3
:10CE9000002801D0FFF700F8084803F013FA002833
:10CEA00001D0FEF7F9FF07B000BD0000E409020061
:10CEB0008C220020E81F0020A1CD0100B90402004F
:10CEC0001CB5044681786A460C4802F067FD0028CC
:10CED00012D160781C21484309491C2340181A4686
:10CEE000694602F021FE064806494C30807A8000EF
:10CEF0000A582146684690471CBD0000C821002002
:10CF0000DC270020580A0200F8B5054608206946CB
:10CF1000088001236A461A492846AADF1948006892
:10CF20008047B12044DF002801D0FEF7B5FF11DFB4
:10CF3000002801D0FEF7B0FF134C606913DF002812
:10CF400001D0FEF7A9FF284600F0C6FE01210F4AD6
:10CF5000880510600E4802680D4B002080330D4696
:10CF60008540154204D0C606F60E0D46B5401D603C
:10CF7000401C2028F3D3606900F00CF8F8BD0000D5
:10CF8000782B0020282200200010001080E200E012
:10CF900000E100E010B5FEF7BDF810BD7CB5134E02
:10CFA00000250C463060002918D06946002000F0AA
:10CFB000B5F8002819D101A9012000F0AFF8002828
:10CFC00013D1684601790020002901D0022004E035
:10CFD00069460978002900D00B202070706800286D
:10CFE00002D1FEF70BFE054628467CBD2421002019
:10CFF00010B51C4C0188606810290DD011290AD188
:10D00000401E606007D1FEF7F9FD002803D02168BB
:10D01000002900D0884710BD00281ED10021012220
:10D02000084600F0ADF8002801D0072811D10722EA
:10D030000221012000F0A4F8002801D0072808D11F
:10D0400004220221002000F09BF8002805D00728C8
:10D0500003D02168002900D088476068401C6060C8
:10D0600010BD00002421002010B5032000F006FAB6
:10D07000002801D0062800D1002010BDF8B50746D1
:10D080000024234802E0641C042C1AD2A200825817
:10D09000BA42F8D1042C14D21D481E4E0C38002977
:10D0A00029D001290ED002290BD160002018801947
:10D0B0004578002D05D018480169002901D028467F
:10D0C0008847F8BD61006118755C8E197178002978
:10D0D0000CD011490A224968806851430E4A521CFB
:10D0E000FEF770FF002801D10B4847700A48B1785D
:10D0F00014300155DDE78068FEF7A2FF06486100A5
:10D10000611814308919005D8D78A842D1D0F8BD1E
:10D11000000A0200902500200C21002004280CD2D7
:10D12000074A1269074B80001B5C0120984090431E
:10D1300000D001200870002070470020FAE70000AE
:10D1400000050050000A020010B5042806D0072888
:10D150000ED00A2801D103F037F810BD074813217B
:10D16000C08876DF06E00028F7D0FEF795FE10BDF8
:10D17000FFF762FA0828F6D110BD000080200020D9
:10D1800070B50023042811D2440004190D4D012A62
:10D1900002D101290DD0002246008019094E8019C4
:10D1A00000290CD0012906D0022906D007231846F1
:10D1B00070BD0D30C2B22A55F9E74270F7E78270B0
:10D1C000F5E700009025002010B5054A0146127AC7
:10D1D0000020D20702D0084600F054F810BD00002D
:10D1E0000C21002070B50E46204905464E608D602A
:10D1F00000200A61A9071ED50024012211462046FD
:10D20000FFF7BEFF641C042C02D20028F5D012E008
:10D21000002810D1720804211548FEF7BBFD002834
:10D2200009D1FEF7A5FD002805D11148114A0021BA
:10D230001438FEF769FEE90706D00F220E495205A1
:10D240008A600023CB608A6100280DD108480B4A10
:10D2500000211C38FEF758FE002805D10448084A72
:10D2600001211838FEF750FE70BD00000C2100208F
:10D27000100A0200B9D4010000050050EDEE0100D3
:10D2800059BD0100FEB57A4D0722EB6892059A431D
:10D2900002936B6800939C0006461B190020012135
:10D2A000019349050746734C3300FEF754FB180DF4
:10D2B0001515374755677C887F8891DE9E9E9E9E18
:10D2C0009EC8CED1D8DEDE140F21029A49059143C3
:10D2D000A160E7602F70FEBDA260E76060680F226A
:10D2E00052055040800209D5A160E760022E02D1AC
:10D2F000E120C0000AE07D20400107E0E160A76076
:10D30000022E01D1C82001E0FF2091302E7064214F
:10D31000FDF736FF0099414300223FE0A260E7603D
:10D3200060680F2252055040800204D5A160E7607A
:10D3300019204001EAE7E160A760E3E7A260E76047
:10D3400060680F2252055040800202D5A160E7605C
:10D35000D1E7E160A760D7E7A260E76060680F22CD
:10D3600052055040800202D5A160E76001E0E16013
:10D37000A7602E700098410000220FE0A260E760D5
:10D3800060680F2252055040800202D5A160E7601C
:10D3900001E0E160A7602E70009900223648006825
:10D3A000FEF710FEFEBDA260E7601BE06168012091
:10D3B000800502468A43A2600140E16010E0606897
:10D3C000012189050A468243A2600840E060E3E744
:10D3D0006068012189050A468243A2600840E06036
:10D3E0000199C9E7E160A7602DE023484068FEF796
:10D3F00027FE11218A1B01D0002807D00F22E968DF
:10D4000052051140A160E760EF60FEBD0121C90532
:10D41000E960012A0CD91046C82148436421FDF770
:10D42000AFFE69680022414313484068FEF7CAFD19
:10D430000F22E96852051140E160A760FEBD0F218F
:10D440004905A160E7602E70FEBD07229205AAE79C
:10D450000D214905A160E76001218905C2E703218B
:10D46000C905A160E7608910BCE70F214905B9E74C
:10D470000C21002000050050F4090200F0B5002145
:10D480000B4C0C4D03273F048A00A25892005619FA
:10D49000326801238B40034000D00323BA431B04AE
:10D4A00013433360491C0429EED30020F0BD000073
:10D4B000000A02000007005010B500780221FFF7B3
:10D4C000DDFD10BD0022D243830004490428CA5068
:10D4D00002D3081820300277704700004C28002043
:10D4E000F0B50025ED43002A02D00023042601E018
:10D4F000042308260B4C04E09F00E7597F1C04D04E
:10D500005B1CB342F8D32846F0BD26185DB2203626
:10D5100035709E00A151002AF5D1E118203108771D
:10D52000F1E700004C280020024909182020085685
:10D53000704700004C280020FFB58FB01E461546EE
:10D540000F0002D10020FEF7A7FC002D02D1002021
:10D55000FEF7A2FC1C216846FDF763FE68460178D1
:10D56000022001436846017000240194039404944E
:10D570000594012108A80694817068460F990184DA
:10D5800007943178017771784177807FF9210840DD
:10D59000801CE72108404108490068468177142132
:10D5A00009A8FDF73EFE08A8099007A80A9068465A
:10D5B0008585C485058604480D9709AA69460088B3
:10D5C000189BA2DF13B0F0BD6C210020F8B53A48DB
:10D5D0001422017851430C18241DA0680C214843E3
:10D5E0003649E7684018058941890091466802F08C
:10D5F00067FA01463846FDF7C3FD002940D00020F8
:10D600000099A2884D436188AE198918CD1900226E
:10D610002B4900280A6109D002F052FA6188884239
:10D6200030D0B54202D1A08800282BD0A0680328B2
:10D6300028D002F045FA0146A088C019FDF7A0FDE8
:10D640001F4C8808E06002F03BFA01462846FDF7CF
:10D6500097FD00292CD0B5422AD0ADB2B6B202F067
:10D660002FFA01463046FDF78BFD074602F028FAF7
:10D6700001462846FDF784FD87420DD1701B15E059
:10D680000120BDE702F01CFA01463846FDF778FD9F
:10D690000B49486103200CE002F012FA064602F042
:10D6A0000FFA01462846FDF76BFD701A80082061CD
:10D6B000022002F09DFDF8BDB02800200C2B0020B8
:10D6C000D021002010B507481422017851430818D2
:10D6D0000079042802D000F059F810BD012002F0B2
:10D6E00087FD10BDB028002010B50B48142201782A
:10D6F00051430818094AC18811620079012806D0EF
:10D70000032801D0042801D1FFF760FF10BD0120DC
:10D7100002F06EFD10BD0000B0280020D0210020D6
:10D7200014225043054A002180180171C180022251
:10D730000161C2604161018170470000B028002092
:10D74000F8B5104C069E65781E2D19D027787D19E6
:10D750001E2D00D31E3D14277D432D1928716A61AB
:10D7600003C92961E860EB802E816078401C6070FD
:10D7700005480078002801D1FFF7B6FF0020F8BD6A
:10D780000420F8BDB0280020D021002010B50D4C99
:10D790001421207848430119091D0020FEF78EFB53
:10D7A0002078FFF7BDFF6078401E60702078401C35
:10D7B000C0B220701E2801D100202070002002F08D
:10D7C00017FD10BDB0280020F8B52348C168002916
:10D7D0003ED00E6821494C680769C078E11B0D02F4
:10D7E0002D0AED1C002814D101201D4A00045060B0
:10D7F0001B4A403A50601B49400008601A490860C3
:10D800001A49012008602F20FDF774FC12490120FD
:10D81000C870B54200D23546E81900020F4B000A25
:10D82000403318600D4A5168001B091B0902090AA0
:10D830000002C91C000A814209D9506818602F20D3
:10D84000FDF758FC01200749400480390860F8BD05
:10D8500002F0FEFAF8BD0000082200200015014089
:10D860004013014080E200E000E100E000100140D0
:10D87000F8B50646108814468446801D0D46984229
:10D8800001D90C20F8BD32880720062AFAD31927BF
:10D89000FF01184BBA4201D99A42F3D17188062987
:10D8A000F0D3B94201D99942ECD19A4203D09942BE
:10D8B00001D08A42E6D805216046295420881221E9
:10D8C000401C80B2208029542088401C80B22080D7
:10D8D0004119308802F090FF2188401880B22080E2
:10D8E0004119708802F088FF2188401820800020AC
:10D8F000F8BD0000FFFF000010B5FEF7CDFA10BD27
:10D90000F8B5164801F06EFA144D00260C3D144C83
:10D91000002807D0616900291CD001206A461070D8
:10D92000684616E02878002805D06169002911D0E2
:10D93000684606700DE0687800280DD0A168094897
:10D9400000220068FEF73EFB002803D0A1690029F1
:10D9500000D088472E70F8BD6168F0E75C21002098
:10D96000E0260020300A020070B5094B04469E7A7A
:10D97000082000250E4207D00648844202D01889AC
:10D98000A04202D10020156070BD052070BD0000CE
:10D990001C280020FFFF00000C214843064910B559
:10D9A000012240188272911E0181FF21C17207215C
:10D9B000FDF737FC10BD00001C28002010B5134CEB
:10D9C000207900071FD46069401C6061E06800286E
:10D9D00001D0042004E001F037FA002803D002202F
:10D9E00002F060FD10BD2069002809D06068C10701
:10D9F00001D00320F4E70121084360600020EFE735
:10DA0000FFF760FE10BD02F041FD10BDD0210020E7
:10DA100010B5084841680A0708D48A0702D50122D0
:10DA200011434160022002F03DFD10BD02F02EFDC9
:10DA300010BD0000D0210020F8B500260124154DAE
:10DA400024E06968F00047183878214681402A6947
:10DA50000B46134218D08A432A6101F017FE3A7828
:10DA60002146EB68914019400346934099420BD1FF
:10DA70007978012901D0012100E000217B68414033
:10DA8000002B01D010469847761CF6B228788642C3
:10DA9000D7D3F8BDF4210020FEB50E4604468178A8
:10DAA0006A46234801F07AFF002826D160780C21CD
:10DAB000204F4843C019807A40061FD4022E1DD043
:10DAC000012E1DD01C4DA0781C2148431B4900236A
:10DAD00041181C226846A847002813D0022E0CD0FB
:10DAE00020780C21484313490C314018807A14499E
:10DAF00080000A58214668469047FEBD114DE2E776
:10DB0000114DE0E7022EF8D060780C214843C0198F
:10DB1000817ABF221140817260781C2148430549F7
:10DB2000403941181C231A466846A847D8E7000028
:10DB3000C82100201C280020110402001827002002
:10DB4000480A020071FD010091FC010070B5054614
:10DB5000114A124800241C2363431B189B7EFF2B91
:10DB600004D0641C072CF6D3104670BD0A78022A34
:10DB700009D01C2262431018FD2282761030072241
:10DB8000FDF728FB04E01C2161430818FE21817683
:10DB90002C700022E8E700004380000018270020D6
:10DBA000F7B505250F4F06460024002E0AD01C208D
:10DBB0006043C019103007223146FDF744FB0028AE
:10DBC00007D00AE01C206043C019018B02988142F3
:10DBD00003D101980025046002E0641C072CE4D303
:10DBE0002846FEBD182700207CB5054681B26A464E
:10DBF000074801F0D3FE040008D17421684601F003
:10DC0000F9FE040002D1284601F056FE20467CBDF4
:10DC1000C821002070B505460C46100001D0FEF763
:10DC20003BF92078152802D12846FEF7EDF80020B0
:10DC300070BD00001FB56946087301F047FF00285A
:10DC400001D0FEF729F903A800F002FD002801D059
:10DC5000FEF722F901A805210130FDF7E2FA694635
:10DC60004979012001438122114030314A06520E88
:10DC700069464A7107228A711022CA7105490091CA
:10DC800069460871044800F043FE002801D0FEF701
:10DC900003F91FBD15DC01008320002001B50449F4
:10DCA000684600F047FA002801D0FEF7F5F808BDF5
:10DCB0002C22002010B50978002908D00322012168
:10DCC000FEF79EFF002801D0FEF7E6F810BD0088A1
:10DCD000FFF71AF910BD000010B58AB000242349DF
:10DCE000009400F083FC002813D101A91F4800F024
:10DCF00025FC00280FD01E491C4800F00BFD002811
:10DD000001D0FEF7C9F81A4800DF002801D0FEF75D
:10DD1000C3F80AB010BD0599072210311448FDF769
:10DD200059FA13481022C01D0599FDF753FA1048FF
:10DD3000112218300199FDF74DFA01990C48123162
:10DD40000A222A30FDF746FA094800DF002801D0F0
:10DD5000FEF7A2F801200090042008906846099080
:10DD600007A90794014800F07BF9CEE72C22002098
:10DD7000442B0020704700000149086070470000F4
:10DD80002822002030B58FB005461C216846FDF7DB
:10DD900048FA69460878082108431022104369466A
:10DDA0000870002401940394049405940694A879BF
:10DDB00008A98870144869460884601C0007079405
:10DDC000000F0C7710304877887FF9210840801CBD
:10DDD000F721084010430121084369468877142140
:10DDE00009A8FDF71EFA08A8099007A80A90694635
:10DDF0008C851720CC8508860D942B46A888103377
:10DE000009AAA2DF0FB030BD3115000030B58FB0C8
:10DE100005461C216846FDF704FA69460878042186
:10DE200008436946087000240194039404940594FF
:10DE30000694A87908A98870134869460884601C6C
:10DE400000070794000F0C77103048778A7FF9207D
:10DE50000240921CE7200240012002438A771421ED
:10DE600009A8FDF7DEF908A8099007A80A906946F5
:10DE70008C851420CC8508860D942B46A888083301
:10DE800009AAA2DF0FB030BD32150000F0B58FB087
:10DE90000F4605461C216846FDF7C3F96846017820
:10DEA00002263143017000240194039404940594E4
:10DEB0000694A97908A88170164968460184601CF7
:10DEC0000107090F103168460794017700200146C9
:10DED00068464177817FF9200140891CE720014095
:10DEE0000120014368468177142109A8FDF799F9BB
:10DEF00008A8099007A80A9068468685C485068602
:10DF00000D972B46A888203309AA6946A2DF0FB0D7
:10DF1000F0BD0000341500003EB504461E480178EF
:10DF20001E48002930D0002C2FD0217800292BD179
:10DF30001B4900250968002926D0A178072927D286
:10DF40001C20184A48438018807EFF2820D01248A1
:10DF50006A46103001F022FD002815D1602304220A
:10DF6000694602A801F0E0FD0299491C0CD060232B
:10DF700004220D49684601F0FBFE002804D1A17877
:10DF8000084A89001C3A55503EBD0448801D3EBDDC
:10DF9000024808303EBD0000B82100200880000083
:10DFA0002828002018270020440A02003EB50C460D
:10DFB00027490A782749002A30D08A1D002805D031
:10DFC000002C03D00278002A28D101E010463EBD83
:10DFD000214A1268002A21D08178072920D21C22E8
:10DFE0001E4B4A43D218927EFF2A19D01B4AA368BF
:10DFF0001C3A002B17D089005350817814486A4688
:10E00000103001F0CBFC0028E1D1602304226946E6
:10E0100002A801F089FD002809D016E008463EBD9F
:10E020000C4808303EBD89005158A160E5E70298D0
:10E03000401C0AD0642310226946A06801F074FDD8
:10E040000028EFD1029961603EBD024838303EBDE4
:10E05000B821002008800000282800201827002070
:10E06000FEB505462D480C4601782D48002925D0DF
:10E07000811D002D23D0002C21D0A268002A1ED0A3
:10E08000297800291AD127490968002916D0A978CA
:10E09000072916D21C22244B4A43D218927EFF2A0B
:10E0A0000FD06A780C235A431E4B0C3BD218927A3D
:10E0B000120703D56068042806D20720FEBD084673
:10E0C000FEBD17480830FEBD1448184E6A46103091
:10E0D00001F064FC0028F6D160230422694602A8FE
:10E0E00001F022FD002803D10298401C00D0104E00
:10E0F00060230422211D6846B0470028E3D1642331
:10E1000010226846A16801F033FE0028DBD1AA780E
:10E11000054B92001C3BA1689950FEBDB821002020
:10E1200008800000282800201827002091FC01000A
:10E1300071FD01000C4A13780C4A002B11D0931D7D
:10E14000002905D0002803D00078002809D101E07B
:10E1500018467047064B1B68002B02D00870002041
:10E160007047104670470000B8210020088000006A
:10E1700028280020F0B591B00546FF240020079420
:10E180000290E9480078002849D0E84F3868002814
:10E1900045D001A800F04EFA002801D0FDF77CFE22
:10E1A000281D05902C2069460883FF2000268871D1
:10E1B0000E710396DD4C28880C3C10280ED0A888E0
:10E1C00003AA0221FFF7D0FB002807D103980C21F6
:10E1D00041430919CA7A69468A7148712A8813200D
:10E1E000192A7DD00FDC102A1BD0112A55D0132AF2
:10E1F00077D0142A13D103980C2148430019C07A10
:10E20000FF286FD0A1E0CA491A2A6CD01E2A65D017
:10E21000522A04D1B87A8000095801A8884711B061
:10E22000F0BDC44F03AA01213846FFF79DFB00282B
:10E23000F5D103990C204843022200198272112360
:10E240006A4613745171A988018129460831072251
:10E250000091FCF7BFFFE87DC10707D04108B24835
:10E260000830405CFF2808D0079006E03A4607A92E
:10E270000098FFF795FC002837D103990C225143F1
:10E2800009190798C8728A7A08231A438A7269465C
:10E29000887101A8FEF714FE27E003980C2148437B
:10E2A0000119887AFD2210408872010706D5C0093D
:10E2B0000DD0002101A8FFF7EFFB08E06846807948
:10E2C000FF2804D001F0F8FAFF206946887103980E
:10E2D0000C2250431021001981721220694603E07C
:10E2E0008BE043E014E0E4E00874324604A901A89E
:10E2F000FDF7DEFD6846007C122890D103980C21C2
:10E3000041430919897A012989D0FFF745FB86E73E
:10E310002A8A07A90020FFF743FC00280ED10399A1
:10E320000C22514309190798C8728A7A08231A43A4
:10E330008A726946887101A8FEF7C2FD03980C2114
:10E3400048430019C07AFF2806D003981C2148438F
:10E3500076494C394018029003981C21484376496D
:10E360004218A8880023029986DF58E76946087496
:10E3700003980C2148430119887A042210438872BB
:10E38000CA7AFF2A0BD040221043887216206946B1
:10E3900008740023A8881A4685217FDF21E007A89A
:10E3A000FFF7D4FB00281FD0064600200D900399EC
:10E3B0000C224A431219D27A1C235A435E4B0F9007
:10E3C000D2180E921C2251431A46C432891810905A
:10E3D00009910A900B900C903A1DA88809AB002176
:10E3E0007FDF002893D180E76946079888710399F9
:10E3F0000C2251430919C872D7E7787A0C214008DA
:10E400004000787203986F460246484301198446DB
:10E410008B7AFB2003408B7214203874287A0028F2
:10E4200006D05806DFD4C87AFFF7DEFB2E7A5CE709
:10E43000687A4007D7D5B879FF28D4D008273B435E
:10E440008B726B7B9B0708D51C2503466B433A4DAB
:10E450005B199D7E6D086D009D76CB7AFF2BC2D037
:10E460006346E35C022B10D01C225043324D07223E
:10E4700040191030FCF7AEFE684680791C214843F5
:10E480004019817EFD2211400DE01C214A4327499D
:10E490004C3951184A8A1C214843274940180283A5
:10E4A000817E490849008176012101A8FFF7F4FA2D
:10E4B0001BE7287A0209012A23D10007000F01284F
:10E4C0001FD103980C2242431219927A120718D5D1
:10E4D0002421484315493039401808301A21FCF7E7
:10E4E000A0FE16206946087403980C2148430119C0
:10E4F000887A602210438872787A02210843787201
:10E500000FE003980C2250430019827A80231A43AB
:10E51000827215206A461074B87A8000095801A8E2
:10E5200088470026E1E60000B821002028280020C6
:10E53000680A0200FFFF000018270020F0B5064619
:10E5400026480C460178264889B000293FD0811D15
:10E55000002E3ED0002C3CD03178002937D1214903
:10E5600000250968002932D0B078072833D21C2151
:10E570001D4F4843C019807EFF282CD0E560B0783D
:10E5800065614843C01920611648A5600C30606081
:10E59000684620601148B17807AA103001F0FEF9F2
:10E5A000002814D11C231A4607A9684601F0BCFABA
:10E5B00000280CD1E560B1781C225143C91965616E
:10E5C00021610849A5600C3161606946216009B08C
:10E5D000F0BD0846FBE702480830F8E7B821002004
:10E5E00008800000282800201827002030B50446A5
:10E5F000002903D00878002814D101E00B4830BD71
:10E600000B480023006800280CD0094AFF208870BE
:10E610000C3A15890520A542F1D14B70D07A88704B
:10E62000002030BD0148801F30BD00000E8000007A
:10E6300028280020002806D0FF2101704170817039
:10E64000C170002070470148704700000E80000034
:10E65000F0B585B0040036D0294800250560457224
:10E6600085722846FFF798F9254824213038FCF7B1
:10E67000D8FD0026FF27304601F01EF921488755B6
:10E68000761C072EF7D37421684681800721C1804C
:10E690001D481C4900900831684601F09BFA00288B
:10E6A0000FD1184E0120083E3070207800280CD081
:10E6B00069468888C988484381B23046103001F0E5
:10E6C00099F905B0F0BD1148FBE7114F00240D4842
:10E6D000A1B202AA083001F061F9002809D11C207A
:10E6E0006043C01900231C2202A901F01DFA002872
:10E6F00001D03570E5E7641C072CE8D3E1E70000A2
:10E7000028280020C021002091E701000E80000091
:10E71000182700200B4610B519491A4A0978002914
:10E720002CD0911D002805D0002B03D001780029A2
:10E7300024D101E0084610BD1349096800291DD005
:10E74000104A8178D21EFF2908D01C2041430F486F
:10E750000918887E800711D410310AE04078FF281C
:10E760000CD00C21484308490C394118887A80079D
:10E7700004D507221846FCF72DFD0022104610BDD7
:10E78000B821002008800000282800201827002039
:10E79000FFB55A4893B000681C9F1E46002873D0EE
:10E7A000742F71D804A8FFF745FF002801D0FDF7AA
:10E7B00073FB002468460474047025460697079688
:10E7C000A9B210AA4E4801F0E9F8002806D10822A3
:10E7D00010A91398FCF737FD002817D06D1C072DE2
:10E7E000EED36846857CFF2D4ED01498032810D0B8
:10E7F00044481C21301AFCF7C3FC012707281ED20D
:10E8000005A80190159800280BD011E06846857482
:10E81000E7E7742F03D040206946087068E02020A5
:10E82000FAE738463649A8401039496808425DD0B1
:10E83000284601F0E7FF20206946087047E02F488E
:10E840001C214C38301AFCF79BFC00281DD02B48AB
:10E8500024213038301AFCF793FC01002A4829D0D3
:10E8600040216A46117029498E4241D0254AA900AB
:10E870001C3A5158B14239D105A90191C07A85425B
:10E8800025D16846447422E030E005A8019020219B
:10E8900068460170447419480C940C300D90583837
:10E8A00008901C204543174806912818099008A88D
:10E8B00007900CE0302269460A704C74CF74807A5D
:10E8C000800704D4104824212438FCF7AAFC1498AB
:10E8D0006946022808780FD002210843694608706B
:10E8E00005A8019004A8159AFDF7E2FA17B0F0BD4B
:10E8F000694608780321F0E73843F0E7282800202C
:10E90000C8210020182700201C280020440A0200EB
:10E9100070B5064618480D46007800280ED01749F5
:10E92000002E0ED0002D0CD02868002809D0144CE1
:10E930002168002907D011480A3870BD0F48801F90
:10E9400070BD084670BD20600522691D201DFCF7C2
:10E9500041FC2879A072207A022140084000084337
:10E96000FB2210402072E079012318430843104035
:10E97000E0710020307070BDB82100200E800000D2
:10E980002828002010B50E4900234A788C78A2422E
:10E9900012D0521CD2B24A70022A00D14B704A786F
:10E9A000074B920018339A58026008691018000249
:10E9B000000A0861012010BD0360002010BD0000A6
:10E9C0000822002010B5002803D0112802D0FDF73E
:10E9D0008BFA10BD0248082241681143416010BD06
:10E9E000D021002010B51C4C217820464068012918
:10E9F00006D0022929D0032912D1000717D513E028
:10EA0000000711D415481422017851430818C18811
:10EA1000A28B891A0904090CC18002D001F0FAFC0A
:10EA200010BDFEF7B3FE10BD00F004FC10BD606920
:10EA3000401C606100F008FA002803D0207801F043
:10EA4000D7FB10BDFEF73EFE10BD60780449800084
:10EA50000858804710BD0000D0210020B0280020B9
:10EA60008C0A020010B528DFFFF7ACFF10BD10B50F
:10EA700029DFFFF7A7FF10BD002804D00349496D27
:10EA8000016000207047032070470000802B0020A9
:10EA90000EB569461120087212490878AA281CD0C0
:10EAA000052211A102A87CDF002801D0FDF7F4F9AE
:10EAB0000020FF2200904132694601900A804122E5
:10EAC000D2004A808880FF209130C88068467ADF73
:10EAD000002801D0FDF7E0F90EBD4A78891C02A894
:10EAE0007CDFE1E79C240020736F6C617200000002
:10EAF000002070470020704700207047F8B5064698
:10EB00004078242104464C4324490C225043611888
:10EB1000224A00254B6824328018AE462F469C4678
:10EB2000002B0CD0827A1346D20908D05A0606D49C
:10EB30000D461A4A614689B2175908358E46174C58
:10EB4000008924343B4672462946A9DF0B2819D098
:10EB5000002800D01248012F13D170780C214843AF
:10EB6000001900890F4AA7DF00280AD00E49884201
:10EB700012D0082810D0891C88420DD011280BD043
:10EB80000020F8BD70780C2148430123001900894A
:10EB900072462946A9DFE0E70148F8BDF8270020C2
:10EBA00041800000FFFF00000230000070B50C46FD
:10EBB000014660782422084D50434019382300F064
:10EBC000B3FF002807D161782422514349194A68CC
:10EBD000521C00D14A6070BDF8270020F3B589B0FF
:10EBE0000D461A206946888368780C21032748431C
:10EBF000224E3B468019008907AA6946AADF0028F1
:10EC000038D1687824214843741A001969460830BD
:10EC10008A8BFCF718FB0028687807D0242148432A
:10EC20000119496800290DD0154E0CE00C21414313
:10EC30008919897A89071DD4242148430019FCF7D2
:10EC4000F0FA17E00F4E27506846828B687824212F
:10EC50004843001942606878484300190830694603
:10EC6000FCF7B8FA68782421484301193823242294
:10EC70000998B04700200BB0F0BD00001C28002010
:10EC800071FD010091FC010010B5FFF737FF10BDC9
:10EC900010B5FFF78BFF10BD10B5FFF79FFF10BD3C
:10ECA000F8B50746114E0125BD403068FDF7C8F99B
:10ECB000002806D10E4C20690146294202D0A84303
:10ECC0002061F8BD384600F0E1FC0028E06801D082
:10ECD000284300E0A843E060206900222843206127
:10ECE000A1683068FDF76EF9F8BD0000A00A0200C7
:10ECF000F421002070B51B4C207900072ED41A484F
:10ED00001422017851430D182E6900F0D9FE0146F6
:10ED1000E8882A89761E80188019FCF731FA216963
:10ED20000025002909D06169814206D1E56060684B
:10ED300001210843606000200AE000F085F8002807
:10ED400002D00220E56003E02069002803D0032000
:10ED500001F0A8FB70BDFEF7B5FC70BD01F096FB9D
:10ED600070BD0000D0210020B0280020F8B51C4C58
:10ED70002078002833D02069002807D00026E068DA
:10ED8000002805D00025002E04D011E00126F6E76A
:10ED90000125F8E7684652DF052804D0002804D092
:10EDA000FDF77AF804E0012602E02169009888471F
:10EDB000002D10D1608869460880A06861DF0528B1
:10EDC00004D0002804D0FDF767F804E0012502E034
:10EDD000E168A0688847002EDCD0002DD3D0F8BDB4
:10EDE00030220020418805480288914204D340889F
:10EDF000814201D801207047002070475421002033
:10EE00001048018CC9B2012917D1818C090714D18E
:10EE1000018D09060A0F03D1828D1206120F0ED042
:10EE2000090F012903D1828D1206120F07D0032981
:10EE300003D1808D0006000F01D000207047012013
:10EE400070470000C00F00F070B50E481422017822
:10EE500051430C18256900F033FE0146E0882289F1
:10EE60006D1E80184019FCF78BF907494A698242E8
:10EE700006D3824202D10869002801D0002070BD6B
:10EE8000012070BDB0280020D0210020800701D0D3
:10EE9000002070470120704730B51588EC1C9C425B
:10EEA00001D90C2030BD02244C5513881C255B1C55
:10EEB0009BB21380CD5413885B1C9BB21380012836
:10EEC00007D0022807D0032807D0042807D007203E
:10EED00030BD002004E0012002E0CC5401E003201A
:10EEE000C8541088401C1080002030BD10B5044864
:10EEF000017AC90702D00078FEF7C4F910BD0000FE
:10EF00000C210020F8B52C49C8680A690C780F79E3
:10EF100089688646944600913EE00099E2005518C3
:10EF20002A7836E0182353436968521CC918AB7815
:10EF3000D2B2934200D100220B78022B02D0032BD5
:10EF400027D123E04E680346014603E0B14204D0D6
:10EF50000B46C96900291CD0F8E7002919D08B425B
:10EF600008D1C069002805D1144F0126BE600026D3
:10EF7000B44601270E68C969D961002909D00B6818
:10EF80009B190B6005E00174C06900E000210028B6
:10EF9000F9D169789142C5D12146641EE4B20029B5
:10EFA000BBD1054962460A61C8600F71704501D046
:10EFB0000120F8BD0020F8BD08220020001001400B
:10EFC000F8B5044631480026C168009107784EE044
:10EFD0002E48F90080680D1843E0002C02D020462E
:10EFE000E4691FE02878182141436A68401CC0B2D8
:10EFF00051182870AA78904200D12E700A7848687B
:10F00000012A30D1027C002A2DD18A684260CA6868
:10F0100082600A69C260496981611C4909790029D5
:10F0200000D04660194943680A699C46991A09024A
:10F03000174B090A994202D28268891807E0614693
:10F04000511A09028268090A8A4202D9511A0160DA
:10F0500000E006604660012186600174C66101F02F
:10F06000B3FA002CB9D1287869788842BAD13846E9
:10F070007F1EFFB20028ABD10448C16800988142CE
:10F0800001D00120F8BD0020F8BD000008220020BA
:10F09000FFFF7F0088B0FDF769F900235C4A052176
:10F0A0001846FCF747FF002801D0FCF7F5FE594A47
:10F0B00001215948FCF728FF002801D0FCF7ECFE9D
:10F0C0005548564A0121001DFCF71EFF002801D0BB
:10F0D000FCF7E2FE524A53490320FEF783F800286A
:10F0E00001D0FCF7D9FE01A90020FDF757FF002849
:10F0F00001D0FCF7D1FE6846007902283BD0002001
:10F1000069460870FDF798FE69460878FEF792FD9B
:10F11000FFF7BEFCFDF7B2F800F0D8F800F07AFF78
:10F120001C216846FCF77DF80521C90301910F21D8
:10F130000904002002910090062269460A730874AF
:10F1400039480590394806906846FDF725FC0028A7
:10F1500001D0FCF7A1FEFCF76FFD354C607910285B
:10F160003DD00ADC00283ED0012840D0022842D001
:10F1700003280AD142E00120C2E720282BD0302802
:10F1800025D040281FD0502819D0002077DF2169D2
:10F19000214C00222068FCF715FF002801D0FCF765
:10F1A0007BFE0121002209046068FCF70BFF0028A8
:10F1B00001D0FCF771FE0320FDF76AFA22E0272058
:10F1C000C04377DFE3E71D20C04377DFDFE713208D
:10F1D000C04377DFDBE70F20C04377DFD7E70B20A3
:10F1E000C04377DFD3E70720C04377DFCFE70320B3
:10F1F000C04377DFCBE7002077DFC8E7042077DF65
:10F20000C5E748DF0028FCD0FCF746FEF9E7000020
:10F21000D4220020A5BB0100E409020049C201007C
:10F2200049D10100CD0C000091F70100F9D801008F
:10F230008020002010B504480822416891434160B5
:10F24000007800F0D5FF10BDD021002070B5144625
:10F25000828805460E46921C2088911C41189942CE
:10F2600001D8FE2A01D90C2070BD521C32542088CE
:10F27000FF21401C80B2208031542088401C80B285
:10F2800020808119288801F0B7FA2188401880B2BF
:10F290002080AA88002A09D0A968002908D08019EE
:10F2A000FBF798FF2088A98840182080002070BDB7
:10F2B000072070BD704700000188102902D1024963
:10F2C00080880880704700002C25002070B52C49EC
:10F2D0002C4E0020325C0B18401C40B29A70132850
:10F2E000F8DD2848264C143082788A750279014668
:10F2F00049790025403CFF2A04D0A0235A432261CB
:10F30000217003E01922920122612570FF2901D0AA
:10F31000217000E02570C07860711948283871DFCD
:10F32000174A0021283A10463F3053185B7843545F
:10F33000491C49B20629F8DB06217218927A425418
:10F34000491C49B20A29F8DB21798172A178C1727E
:10F35000A121017301224273217801740B00FCF793
:10F36000FAFA060D04060D0D0A0D627001E0022086
:10F370006070257070BD0320607070BD657070BDD9
:10F38000C0200020BC24002070B50188821D5029B7
:10F3900037D153881B4D11465C1B0C31AB4230D02A
:10F3A00010DC1948181A2CD11848AA230370937A34
:10F3B00043705289801CFBF70DFF00232022134964
:10F3C00013481CE0012C0FD0022C1AD0032C18D1AA
:10F3D0000E4852893430FBF7FDFE0C490C480023DF
:10F3E0002022343110300AE0084852892030FBF7DF
:10F3F000F1FE06490648002320222031083000F0A3
:10F40000B7FC70BD84860000002A00009C24002008
:10F41000A8200020F8B50F460178144605460129BA
:10F4200002D16878002806D02088821C9A422DD804
:10F43000012902D006E00720F8BD69784118891C2F
:10F44000994223D8181A801E86B268460680218801
:10F45000B81C081869467DDF0028EDD128780228FD
:10F4600005D169460988B14201D809210AE008217D
:10F47000012805D16878B04202D86A46108001E0C0
:10F480006846068068460088FE2801D90C20F8BD31
:10F490002288401CB8542088401C80B220803954F7
:10F4A00020886946401C2080098840182080002060
:10F4B000F8BD002070470020704700207047000012
:10F4C0000348024941600121016070470A200000A1
:10F4D0000075004031B5054C04E0401E0090204608
:10F4E000FBF7F8FD00980028F7D138BDE7030000CE
:10F4F0008207D30EFF229A408907090E10B5994062
:10F5000000280BDA03071B0F083B9C080C4BA400D8
:10F51000E318DC6994430C43DC6107E08408094B81
:10F52000A400E418236893430B432360C106C90E6B
:10F5300001208840044908600449086010BD0000AB
:10F5400000ED00E000E400E080E200E000E100E027
:10F55000F3B581B00F46019800F0D8F901240028D6
:10F560001E4E019817D0FDF7DFFF80192030007F75
:10F570008009032802D001280BD005E01848006953
:10F5800001998C40204204D00321019800F0CCF86E
:10F59000FEBD0221F9E700F0C5F90028F8D0019876
:10F5A000FDF7C2FF05468100C81D0E4AF9308918D3
:10F5B0000A6980B222430A610B49401800210160A8
:10F5C000002FE5D00198FDF7AFFF800030580028EC
:10F5D000DED00648AC404460FEBD00004C28002050
:10F5E00000050050006500400060004000630040DE
:10F5F000FEB515460E460446002700F07DF90028AA
:10F6000001D0082738E0F27829462046FDF768FF48
:10F610000546401C2FD0B078002807D01748A1001D
:10F620000918086802229043086007E000217378F7
:10F63000204600910A46019100F064F8F078002815
:10F6400010D00F48AA001018317802690D4B1A40EB
:10F650000261E206D20C8907890B0A4301690A4359
:10F66000026109E00848327840192030017F920198
:10F670001143017700E004273846FEBD0007005023
:10F6800000650040FFE0FCFF4C28002003490969A9
:10F69000C140C807C00F00D00120704700050050CE
:10F6A00070B5124D2879002801D0082070BD0F498F
:10F6B00000204039421E0B182033401CC0B21A7083
:10F6C0002028F8D300242046FDF7FCFE641CE4B299
:10F6D000082CF8D303210620FFF70AFF0120044974
:10F6E000C007486001202871002070BD8C280020D0
:10F6F0000063004002480079002800D001207047D4
:10F700008C28002030B552000A439900039C0A431C
:10F710002102049D0A4329040A430249800040183B
:10F72000026030BD000700508200064810180268D1
:10F7300003231B049A430260026809040A4302601F
:10F740007047000000070050034940180068012876
:10F7500000D0002070470000006000400921C9016E
:10F7600041180868086070474058002800D0012000
:10F7700070470322120280184068084000D0012020
:10F78000704710B5002801D100F01EFD10BD00002B
:10F7900010B50078002807D104483B21C08876DFE7
:10F7A000002801D0FCF778FB10BD0000802000206D
:10F7B000F0B58BB00C460546022168460173012660
:10F7C0008674228982826289C28220460C30002798
:10F7D0000690089768460184478407A80990A98A7B
:10F7E000288808AAA5DF002804D0E96A002919D0D2
:10F7F000884717E06846808BC007C00F12D0684664
:10F800000782288803A9A8DF002812D1217B20467F
:10F810000D300B00FCF79FF809420F1C222427290A
:10F82000402B4200FF20FE3069460882288803A949
:10F83000A8DF0BB0F0BD6A4617700BE006221BE094
:10F8400069460E720190AA6A284690470020F0E7A8
:10F850006A4616706289022AF2D2EFE7022000E0BF
:10F860000320694614E00420FBE70520F9E76189DD
:10F87000032905D2032208212846FDF7C1F9D8E75C
:10F8800041780278080210436946888002D0062039
:10F890000870D8E70720FBE70920E2E70322EBE73F
:10F8A0000021425C002A01D001207047491C062932
:10F8B000F7D300207047000070B505461C200D49A5
:10F8C00068434418204611300621FBF7AAFC204665
:10F8D0001021FBF7A6FCFF2121740020A176C04374
:10F8E0002083284600F08EFF024A0020A9001C3A1F
:10F8F000505070BD18270020034908182021415698
:10F90000C817401C704700004C2800200449081804
:10F9100020214156042901DB012070470020704757
:10F920004C2800200449081820214156042901D2FE
:10F9300001207047002070474C28002070B50D0052
:10F94000044602D10020FCF7A7FA002C02D10020C7
:10F95000FCF7A2FA2878207069886170090AA17002
:10F96000A988E170090A2171E8886071000AA07114
:10F9700070BD000007490979490701D40820704784
:10F98000002804D0044949780160002070470E2007
:10F9900070470000D0210020B028002070B5134B24
:10F9A0001B795B0701D4082070BD002817D0002AFE
:10F9B00015D00368022B10D20C240D4D5C432E5938
:10F9C000002E0AD046686019048945894068614361
:10F9D000654371182818884203D8072070BD0E208F
:10F9E00070BD13600020516070BD0000D021002068
:10F9F0000C2B0020FEB5044626480E460079400731
:10FA000001D40820FEBD002C25D02068022836D263
:10FA10000C21214D48432958002930D040194189F3
:10FA200002894068514309186068814227D9FFF76D
:10FA30002DFA002811D06068019021680C225143F2
:10FA40004F1979680091401A39890D46FBF798FBE8
:10FA5000002914D103E00E20FEBD1020FEBD294672
:10FA60003046FBF78DFB002909D1002E07D078899D
:10FA700000994543019849198019884201D9072006
:10FA8000FEBD002002460090334621460320FDF7CC
:10FA900057FEFEBDD02100200C2B002010B50748DA
:10FAA0004469601C06D000F00BF801462046FBF7C5
:10FAB00067FB10BD01200007406910BD0010001059
:10FAC00001200007006980B27047000070B5002473
:10FAD00012482546047044702846FDF721FE6D1C2F
:10FAE0001E2DF9D30E4D6C80FFF7D8FFC61EFFF711
:10FAF000E7FF46430B4AAE6000206C610C21414396
:10FB0000545089180C81401C4C810228F6D32C706B
:10FB1000AC610420EC616860002070BDB02800205A
:10FB2000D02100200C2B0020FFB5284881B000799F
:10FB30001F4616460C46400702D4082005B0F0BD0B
:10FB4000002C1DD0019800281AD02068022815D258
:10FB50000C211F4D4843295800290FD041194A89CB
:10FB600008894968424351186268914206D9002EBB
:10FB700004D0B04202D3F119814203D90720DDE756
:10FB80000E20DBE70198FFF781F900281BD03846EB
:10FB9000FFF77CF9002816D06068FFF777F9002896
:10FBA00011D060683246C1190198FBF713FB00962B
:10FBB00020680C2148432D58002202212046019B39
:10FBC000A8470020BAE71020B8E70000D0210020A5
:10FBD0000C2B0020F8B52C4D044628790E46400722
:10FBE00001D40820F8BD002C20D0002E1ED02068A3
:10FBF00000281BD0FFF764FF0146A088814213D381
:10FC0000102811D3E08800280ED0FFF747FF471EC9
:10FC1000FFF756FF4743E288A188A8684A431218B5
:10FC2000974201D3890703D00720F8BD0E20F8BD05
:10FC30006988022926D031600C22144B5143706030
:10FC4000CA18506020685850A0881081E088508100
:10FC5000FFF736FF0646FFF733FFA188E288401E14
:10FC6000514340183146FBF7A1FA0446FFF728FF3D
:10FC70000146A86861430818A8606888401C68802D
:10FC80000020F8BD0420F8BDD02100200C2B00205E
:10FC9000F8B5044621481E46007915460F46400730
:10FCA00001D40820F8BD002F1CD0002C1AD02168E8
:10FCB000022915D20C20414319484258002A0FD07E
:10FCC00008184289018940684A43101862689042C6
:10FCD00006D9002D04D0A94202D3A819884203D91D
:10FCE0000720F8BD0E20F8BD3846FFF7CFF80028F2
:10FCF00011D03046FFF7CAF800280CD06068FFF733
:10FD0000C5F8002807D02B463A4621460120009628
:10FD1000FDF716FDF8BD1020F8BD0000D021002031
:10FD20000C2B002010B5114902460878002811D08C
:10FD300004280FD0022A16D0032A0BD10A79120701
:10FD400011D48A69521C8A61032A08D0022802D081
:10FD500000F04EFA10BD487800F0A4FB10BD0D2055
:10FD6000FCF7C2F810BDFEF73DFE10BDD02100200B
:10FD7000F8B5044621481E46007915460F4640074F
:10FD800001D40820F8BD002F1CD0002C1AD0216807
:10FD9000022915D20C20414319484258002A0FD09D
:10FDA00008184289018940684A43101862689042E5
:10FDB00006D9002D04D0A94202D3A819884203D93C
:10FDC0000720F8BD0E20F8BD3846FFF75FF8002881
:10FDD00011D03046FFF75AF800280CD06068FFF7C2
:10FDE00055F8002807D02B463A46214604200096B5
:10FDF000FDF7A6FCF8BD1020F8BD0000D0210020C2
:10FE00000C2B002010B510481049C088884205D03E
:10FE1000132176DF03E0FCF73FF802E074DF0028EF
:10FE2000F9D10020FDF7D0F9002801D0FCF734F813
:10FE3000FCF724FE002801D0FCF72EF8FF20F53057
:10FE4000FFF748FB10BD000080200020FFFF0000EE
:10FE500070B501240B49600408600B4940108860AC
:10FE6000094940398860094D6C602F20FBF742F941
:10FE7000AC60074D00242F202C61FBF73BF9EC70A0
:10FE800070BD000080E100E040130140001001401F
:10FE90000822002030B50A48FF22C57D0024094908
:10FEA0000932094B002D8C5007D09969437EC268F6
:10FEB000D154417E491C417630BD986930BD000067
:10FEC0009428002000200040002500401FB5012399
:10FED0006A46137010720348019106C8684690473D
:10FEE0001FBD00009428002008B5024900200091A1
:10FEF00008BD00008020002010B50121202803DA71
:10FF00001A4A814011420CD08107C90E00280ADA32
:10FF10000207120F083A9208154B9200D218D269C4
:10FF200006E0144810BD8208134B9200D2181268E4
:10FF3000CA401106890F042911D200290FD00229C5
:10FF40000DD00E494C68C306DB0E01229A40002CEE
:10FF500008D0400980000B5813430B5004E00548BB
:10FF6000401C10BD06480260002010BDFC06FFBC0E
:10FF700000ED00E00120000000E400E04422002049
:10FF800000E100E0FFB50746806A81B01446002812
:10FF90003DD0002538462030009033E00C20B96A6F
:10FFA00068430E18B088801CFE2802D90C2005B0CA
:10FFB000F0BD22880299401C885420881622401CDB
:10FFC00080B2208002990A542088401C80B2208090
:10FFD00002994118308800F00FFC2188401880B247
:10FFE0002080B288002A0AD0B16800290FD0029B75
:10FFF000C018FBF7EFF82088B188401820806D1CEE
:020000040002F8
:100000000098EDB2007BA842C8D80020CFE70720B7
:10001000CDE7000030B5A7B0142111A8FBF701F916
:1000200001200146103110A8417401200146103111
:1000300010A881740020014610A8C1740120014657
:10004000103110A801750025012411950472642156
:100050001395017411A94848FCF74AFC002801D007
:10006000FBF71AFF402101A8FBF7DBF843A101A829
:10007000FCF7D2FE01200146103110A801700020CB
:10008000014610A8417001A8FCF7EAFD002801D044
:10009000FBF702FF20A884703D49374A01804A32AD
:1000A00001460120A0DF3BA207CA16AB07C33CA054
:1000B0000068219014223BA122A8FBF78BF8199528
:1000C0001A951B950123142221A93B481C950094E5
:1000D000FBF73CFB38480123142221A9401C009463
:1000E000FBF734FB34480123142216A9801C00942A
:1000F000FBF72CFB30480123142216A9C01C0094E6
:10010000FBF724FB1C492C48012314222839001D2D
:100110000094FBF71BFB28480123102219A9401D5E
:100120000094FBF713FB14492348012306221439DA
:10013000801D0094FBF70AFB1F480123132222A90C
:10014000C01D0094FBF702FB1C481E901D951F95D7
:1001500010A8848608481DA91830FCF7C7FC0028A1
:1001600001D0FBF799FE1648FDF706FE1548C0784A
:10017000FDF794FD27B030BDE42400204E6F72647B
:10018000696353656D69636F6E647563746F720044
:1001900080860000FF02020204090704020000003A
:1001A00003000000432B430000000000000000009B
:1001B00000000000000000008186FFFFB5DC0100A8
:1001C00005FE01008020002010B50020FCF7FCFF98
:1001D000002801D0FBF760FEFCF746FF002801D0A5
:1001E000FBF75AFE3CDF002801D0FBF755FE10BD9F
:1001F00010B50F490028087009D0012811D0022835
:1002000012D0032802D14869FEF72CFC10BD002053
:100210008861C861074840780028F7D0FDF764FA84
:1002200010BD00F0F7F810BD00F056F810BD00004A
:10023000D0210020B0280020002803D00249C86047
:10024000002070470E207047302200201CB5034963
:1002500001910091694660DF1CBD000080200020F4
:1002600070B50E460546144614211046FAF7D9FF1C
:100270000120002120802161217326726572002DEA
:1002800000D0A072002070BD10B5FBF7F9FD10BDC5
:1002900070B5002901D08C0701D0072070BD074C34
:1002A0000125A16062800649636010DF0028F5D156
:1002B00025701620FFF720FE70BD000030220020C0
:1002C00089020200002803D002490861002070471B
:1002D0000E20704730220020F8B5164C14226068BA
:1002E0004008400060601448017851430E18376997
:1002F000FFF7E6FB01463846FAF742FF0546606124
:10030000FFF7DEFB0146F0887F1EC019FAF738FFC1
:1003100002228542606801D1104300E09043606092
:10032000E1681040084303D0002000F0BBF8F8BD9E
:100330000220FAE7D0210020B028002010B50248A2
:100340004069FEF78FFB10BDD021002010B5FFF7EC
:10035000A5FB441EFFF7B4FB4443FFF7B1FB044980
:100360004A69521E5043CA682146FEF780FB10BD01
:10037000D0210020F8B510481422017851430C1800
:100380002569FFF79DFB0146E08822898018401906
:10039000FAF7F6FE0F46FFF781FB461EFFF790FBCC
:1003A0004643E0882289F1198018044A40191269ED
:1003B000FEF75DFBF8BD0000B0280020D021002032
:1003C00070B5FFF77DFB0546FFF768FB441EFFF79E
:1003D00077FB60432946FAF7D3FEFEF743FB70BD77
:1003E00070B5FFF76DFB8608FFF76AFB074949699F
:1003F00048430446FFF752FB451EFFF761FB684385
:1004000032462146FEF733FB70BD0000D0210020AC
:100410000020704770B514481422017851430C181D
:10042000241DFFF74DFB6188104E884211D2FFF763
:1004300047FB61880D1AFFF743FB8208A188E0683B
:100440004018216940194919FEF711FBFFF738FBE5
:1004500007E0A288E06880188A082169FEF707FB98
:100460006088F06170BD0000B0280020D02100201D
:1004700010B505480079000703D4012000F012F8F8
:1004800010BD00F003F810BDD021002010B50448C5
:100490000822416891434160407800F003F810BDA4
:1004A000D0210020024948700249800008580047C6
:1004B000D0210020780A020010B50446FFF732FC74
:1004C0002046FCF799F810BD70B50C00054602D126
:1004D0000020FBF7E1FC002D02D10020FBF7DCFC43
:1004E000207828702088FF2109020840000A6870DF
:1004F000206809020840000CA8702068000EE8700F
:1005000020792871207A68712089000AA871A06872
:10051000000CE87170BD000010B5054800790007B7
:1005200002D4FDF7CFF810BDFFF7B0FF10BD0000FB
:10053000D0210020FEB51F4C00252769E0680290FD
:100540006846FEF71FFA0190FEF7DCFC06460198AC
:10055000002822D000230098E16817E00E680A46C0
:10056000864202D9301A086012E0801BF318002678
:100570001660D668D169B446002E07D0FE18360240
:10058000360A566066469660D56115460029E5D163
:100590002846E160FEF714FD06E02846FEF710FD50
:1005A000002801D1002E02D00298FDF70DF900209D
:1005B0002071FEBD082200200120024900050860CC
:1005C0007047000000E200E010B50E4BD96800292A
:1005D00006D002680C68A24204D8A21A0A60C1615F
:1005E000D86010BD0B4604E00B46C969121B0029F8
:1005F00004D00C689442F7D3A41A0C600260C16165
:10060000D86110BD08220020F8B51D4DEC68002C03
:1006100034D01C48002740682969401A0602360A6F
:100620002068B04218D8361AC7192246107CE469EF
:1006300000280FD0002010746B69002B07D091693F
:1006400050699847002805D0FBF726FC02E0516965
:1006500090698847002CE3D16978A878814206D157
:10066000401CC0B2A870022801D10020A870044923
:100670000006800D18310F50FFF79EFFF8BD0000F7
:100680000822002000150140FF2107481D310022EB
:1006900042500648828A8168895C828A521C828222
:1006A0000348C161704700000020004094280020EA
:1006B000002500401FB500216A46117010720448E1
:1006C00082680192817506C8684690471FBD000088
:1006D00094280020F0B5454D012185B049022846F7
:1006E000FFF747F801270026414C002824D0FF21BE
:1006F00025312846FFF738F800281DD0FF21253185
:1007000028466E5081223B4992008A60A17E0029D2
:1007100000D14760022269460A70FFF71FF8039074
:10072000E07D69460872E0680190E67526766268A9
:100730006846216890472BE004212846FFF719F806
:10074000002825D0FF2109312846FFF70DF80028A1
:100750001ED0FFF79FFBE07D617E884218D1207E8E
:10076000002808D0627EE168E0752069E0602676A6
:10077000667610460AE0A07E002800D16F608121D5
:100780001C4889008160E675607EE168FFF79EFB8A
:10079000FF211D312846FEF7E7FF00280DD0A18A72
:1007A000A07D814202D2FFF76FFF06E0FF211D31DD
:1007B0006E50002801D0FFF77DFFFF21453128460C
:1007C000FEF7D2FF00280ED0FF2045302E50A07E2D
:1007D000002800D02F60E07D002804D0E675607E00
:1007E000E168FFF773FB05B0F0BD0000002000409A
:1007F00094280020002300400870000A487002205E
:100800007047000001218140024842688A434260EB
:1008100070470000B821002038B51549154A4888AE
:1008200090420FD04A78144C521CD2B24A70237BAB
:10083000934208D3091D75DF002803D0A169002960
:1008400000D0884738BD00254D70217C002907D095
:100850003B2176DF002803D0A169002900D088471A
:1008600061690029EED068460570884738BD0000F0
:1008700050210020FFFF0000E0260020EFF305805C
:10088000C005C00D1AD0103840B2002808DA0107A0
:10089000090F083989080C4A89008918C96904E0D8
:1008A00081080A4A8900891809688007C00EC1407A
:1008B0000806800F012803D0032803D002207047C8
:1008C000002070470120704700ED00E000E400E0E8
:1008D00042788378521CD2B2934200D1002203782E
:1008E000934201D1002070470A7041684078182275
:1008F000504308187047FFB583B016460C9D0D9CF9
:100900001F46022200950194039800F00CF800287D
:1009100007D13B461022314600950194039800F020
:1009200002F807B0F0BDFFB583B0074600200C9C6D
:100930008646268805463AE07868A900421811885C
:10094000684681805188C1800022694601A865DF20
:10095000002839D1684601780598814226D1704631
:10096000002801D0002200E00222208889184218C5
:100970000D998A4227D8714600290AD1401C80B2BD
:100980002080069A049911542088401C2080012060
:100990008646218806980A18694601A865DF00285E
:1009A00012D1694620880978401820806D1C38884B
:1009B000A842C1DC704600280AD02088801B401E57
:1009C00080B2FF2802D90C2007B0F0BD06998855E7
:1009D0000020F9E70179002902D1007B002800D02E
:1009E000012070474C2200206C22002001000007EB
:1009F000AAFE010050250020702500209C25002023
:100A0000110000001200000013000000140000009C
:100A1000110003007DD00100120003007DD0010011
:100A2000130003007DD00100140003007DD00100FD
:100A3000C026002023D1BCEA5F782315DEEF121216
:100A400000000000FFFFFFFFBBF40100DDEB010031
:100A5000F9EA010099EC0100B7F40100ADEB0100E7
:100A6000F5EA010091EC0100B3F40100FDEA010098
:100A7000F1EA010089EC0100C1030200E103020078
:100A80003D030200750302004D03020071040200E1
:100A900011DA0100BDD9010019050200F5EC0100D1
:100AA000242B002003000000C80A02008020002040
:100AB000CC01000098B50100180B02004C22002068
:100AC0008C11000080B90100610338FFFFB81902E2
